{"contracts/ERC20.sol":{"ERC20":{"abi":[{"inputs":[{"internalType":"string","name":"tokenName","type":"string"},{"internalType":"string","name":"tokenSymbol","type":"string"},{"internalType":"uint8","name":"unitDecimals","type":"uint8"},{"internalType":"uint256","name":"totalSupplyAmount","type":"uint256"}],"stateMutability":"nonpayable","type":"constructor"},{"inputs":[{"internalType":"address","name":"_spender","type":"address"},{"internalType":"uint256","name":"_allowance","type":"uint256"},{"internalType":"uint256","name":"_needed","type":"uint256"}],"name":"InsufficientAllowance","type":"error"},{"inputs":[{"internalType":"address","name":"_sender","type":"address"},{"internalType":"uint256","name":"_balance","type":"uint256"},{"internalType":"uint256","name":"_needed","type":"uint256"}],"name":"InsufficientBalance","type":"error"},{"inputs":[{"internalType":"address","name":"_approver","type":"address"}],"name":"InvalidApprover","type":"error"},{"inputs":[{"internalType":"address","name":"_receiver","type":"address"}],"name":"InvalidReceiver","type":"error"},{"inputs":[{"internalType":"address","name":"_sender","type":"address"}],"name":"InvalidSender","type":"error"},{"inputs":[{"internalType":"address","name":"_spender","type":"address"}],"name":"InvalidSpender","type":"error"},{"inputs":[{"internalType":"address","name":"_owner","type":"address"},{"internalType":"address","name":"_sender","type":"address"}],"name":"OnlyOwner","type":"error"},{"inputs":[{"internalType":"address","name":"_pendingOwner","type":"address"},{"internalType":"address","name":"_yourAddress","type":"address"}],"name":"OnlyPendingPwner","type":"error"},{"inputs":[{"internalType":"address","name":"_setAddr","type":"address"}],"name":"ZerpPendingOwner","type":"error"},{"anonymous":false,"inputs":[{"indexed":true,"internalType":"address","name":"owner","type":"address"},{"indexed":true,"internalType":"address","name":"spender","type":"address"},{"indexed":false,"internalType":"uint256","name":"value","type":"uint256"}],"name":"Approval","type":"event"},{"anonymous":false,"inputs":[{"indexed":false,"internalType":"uint256","name":"_burnValue","type":"uint256"},{"indexed":false,"internalType":"uint256","name":"_supplyValue","type":"uint256"}],"name":"Burn","type":"event"},{"anonymous":false,"inputs":[{"indexed":false,"internalType":"uint256","name":"_mintValue","type":"uint256"},{"indexed":false,"internalType":"uint256","name":"_supplyValue","type":"uint256"}],"name":"Mint","type":"event"},{"anonymous":false,"inputs":[{"indexed":false,"internalType":"address","name":"_pendingOwner","type":"address"}],"name":"NewPendingOwnerSet","type":"event"},{"anonymous":false,"inputs":[{"indexed":false,"internalType":"address","name":"_newOwner","type":"address"},{"indexed":false,"internalType":"address","name":"_pendingOwner","type":"address"}],"name":"OwnerChanged","type":"event"},{"anonymous":false,"inputs":[{"indexed":true,"internalType":"address","name":"from","type":"address"},{"indexed":true,"internalType":"address","name":"to","type":"address"},{"indexed":false,"internalType":"uint256","name":"value","type":"uint256"}],"name":"Transfer","type":"event"},{"inputs":[{"internalType":"address","name":"_owner","type":"address"},{"internalType":"address","name":"_spender","type":"address"}],"name":"allowance","outputs":[{"internalType":"uint256","name":"","type":"uint256"}],"stateMutability":"view","type":"function"},{"inputs":[{"internalType":"address","name":"_spender","type":"address"},{"internalType":"uint256","name":"_value","type":"uint256"}],"name":"approve","outputs":[{"internalType":"bool","name":"","type":"bool"}],"stateMutability":"nonpayable","type":"function"},{"inputs":[{"internalType":"address","name":"_owner","type":"address"}],"name":"balanceOf","outputs":[{"internalType":"uint256","name":"","type":"uint256"}],"stateMutability":"view","type":"function"},{"inputs":[{"internalType":"uint256","name":"_value","type":"uint256"}],"name":"burn","outputs":[],"stateMutability":"nonpayable","type":"function"},{"inputs":[],"name":"changeOwner","outputs":[],"stateMutability":"nonpayable","type":"function"},{"inputs":[],"name":"decimals","outputs":[{"internalType":"uint8","name":"","type":"uint8"}],"stateMutability":"view","type":"function"},{"inputs":[{"internalType":"address","name":"_to","type":"address"},{"internalType":"uint256","name":"_value","type":"uint256"}],"name":"mint","outputs":[],"stateMutability":"nonpayable","type":"function"},{"inputs":[],"name":"name","outputs":[{"internalType":"string","name":"","type":"string"}],"stateMutability":"view","type":"function"},{"inputs":[],"name":"owner","outputs":[{"internalType":"address","name":"","type":"address"}],"stateMutability":"view","type":"function"},{"inputs":[],"name":"pendingOwner","outputs":[{"internalType":"address","name":"","type":"address"}],"stateMutability":"view","type":"function"},{"inputs":[{"internalType":"address","name":"_pendingOwner","type":"address"}],"name":"setPendingOwner","outputs":[],"stateMutability":"nonpayable","type":"function"},{"inputs":[{"internalType":"bytes4","name":"interfaceID","type":"bytes4"}],"name":"supportsInterface","outputs":[{"internalType":"bool","name":"","type":"bool"}],"stateMutability":"pure","type":"function"},{"inputs":[],"name":"symbol","outputs":[{"internalType":"string","name":"","type":"string"}],"stateMutability":"view","type":"function"},{"inputs":[],"name":"totalSupply","outputs":[{"internalType":"uint256","name":"","type":"uint256"}],"stateMutability":"view","type":"function"},{"inputs":[{"internalType":"address","name":"_to","type":"address"},{"internalType":"uint256","name":"_value","type":"uint256"}],"name":"transfer","outputs":[{"internalType":"bool","name":"","type":"bool"}],"stateMutability":"nonpayable","type":"function"},{"inputs":[{"internalType":"address","name":"_from","type":"address"},{"internalType":"address","name":"_to","type":"address"},{"internalType":"uint256","name":"_value","type":"uint256"}],"name":"transferFrom","outputs":[{"internalType":"bool","name":"","type":"bool"}],"stateMutability":"nonpayable","type":"function"}],"evm":{"bytecode":{"linkReferences":{},"object":"608060405234801561001057600080fd5b50604051610ffa380380610ffa83398101604081905261002f91610187565b600080546001600160a01b03191633179055600261004d8582610299565b50600361005a8482610299565b506004805460ff191660ff84161790556005819055600080546001600160a01b03908116825260066020908152604080842085905583549051858152921692917fddf252ad1be2c89b69c2b068fc378daa952ba7f163c4a11628f55a4df523b3ef910160405180910390a350505050610357565b634e487b7160e01b600052604160045260246000fd5b600082601f8301126100f557600080fd5b81516001600160401b0381111561010e5761010e6100ce565b604051601f8201601f19908116603f011681016001600160401b038111828210171561013c5761013c6100ce565b60405281815283820160200185101561015457600080fd5b60005b8281101561017357602081860181015183830182015201610157565b506000918101602001919091529392505050565b6000806000806080858703121561019d57600080fd5b84516001600160401b038111156101b357600080fd5b6101bf878288016100e4565b602087015190955090506001600160401b038111156101dd57600080fd5b6101e9878288016100e4565b935050604085015160ff8116811461020057600080fd5b6060959095015193969295505050565b600181811c9082168061022457607f821691505b60208210810361024457634e487b7160e01b600052602260045260246000fd5b50919050565b601f82111561029457806000526020600020601f840160051c810160208510156102715750805b601f840160051c820191505b81811015610291576000815560010161027d565b50505b505050565b81516001600160401b038111156102b2576102b26100ce565b6102c6816102c08454610210565b8461024a565b6020601f8211600181146102fa57600083156102e25750848201515b600019600385901b1c1916600184901b178455610291565b600084815260208120601f198516915b8281101561032a578785015182556020948501946001909201910161030a565b50848210156103485786840151600019600387901b60f8161c191681555b50505050600190811b01905550565b610c94806103666000396000f3fe608060405234801561001057600080fd5b50600436106101005760003560e01c806362a0947711610097578063a9059cbb11610066578063a9059cbb1461021b578063c42069ec1461022e578063dd62ed3e14610241578063e30c39781461025457600080fd5b806362a09477146101b757806370a08231146101bf5780638da5cb5b146101e857806395d89b411461021357600080fd5b806323b872dd116100d357806323b872dd14610167578063313ce5671461017a57806340c10f191461018f57806342966c68146101a457600080fd5b806301ffc9a71461010557806306fdde031461012d578063095ea7b31461014257806318160ddd14610155575b600080fd5b610118610113366004610a86565b610267565b60405190151581526020015b60405180910390f35b610135610299565b6040516101249190610ab0565b610118610150366004610b1a565b61032b565b6005545b604051908152602001610124565b610118610175366004610b44565b610474565b60045460405160ff9091168152602001610124565b6101a261019d366004610b1a565b61065f565b005b6101a26101b2366004610b81565b61075d565b6101a261082f565b6101596101cd366004610b9a565b6001600160a01b031660009081526006602052604090205490565b6000546101fb906001600160a01b031681565b6040516001600160a01b039091168152602001610124565b6101356108d7565b610118610229366004610b1a565b6108e6565b6101a261023c366004610b9a565b6109bd565b61015961024f366004610bb5565b610a59565b6001546101fb906001600160a01b031681565b60006001600160e01b031982166301ffc9a760e01b8114906336372b0760e01b1481806102915750805b949350505050565b6060600280546102a890610be8565b80601f01602080910402602001604051908101604052809291908181526020018280546102d490610be8565b80156103215780601f106102f657610100808354040283529160200191610321565b820191906000526020600020905b81548152906001019060200180831161030457829003601f168201915b5050505050905090565b6000338061035c576040516322f051b160e21b81526001600160a01b03821660048201526024015b60405180910390fd5b836001600160a01b03811661038f5760405163270af7ed60e11b81526001600160a01b0382166004820152602401610353565b33600081815260066020526040902054859190828110610428573360008181526007602090815260408083206001600160a01b038d168085529083528184208c9055848452600883529281902080546001600160a01b03191684179055518a815283917f8c5be1e5ebec7d5bd14f71427d1e84f3dd0314c0f7b2291e5b200ac8c7c3b92591015b60405180910390a36001965050610469565b60006104348285610c38565b60405163db42144d60e01b81526001600160a01b03851660048201526024810184905260448101829052909150606401610353565b505050505092915050565b60006001600160a01b03841615610634576001600160a01b03831615610610576001600160a01b038416600090815260066020908152604080832054600783528184203380865293529083205491929091908583106105d157836001600160a01b0316886001600160a01b03161461055a578582101561052d576104f88287610c38565b604051630c95cf2760e11b81526001600160a01b03861660048201526024810184905260448101829052909150606401610353565b6001600160a01b038089166000908152600760209081526040808320938816835292905220805487900390555b6001600160a01b0380891660008181526006602052604080822080548b90039055928a168082529083902080548a01905591517fddf252ad1be2c89b69c2b068fc378daa952ba7f163c4a11628f55a4df523b3ef906105bc908a815260200190565b60405180910390a36001945050505050610658565b6105db8387610c38565b60405163db42144d60e01b81526001600160a01b03861660048201526024810185905260448101829052909150606401610353565b604051639cfea58360e01b81526001600160a01b0384166004820152602401610353565b6040516313053d9360e21b81526001600160a01b0385166004820152602401610353565b9392505050565b60005433906001600160a01b0316810361072d57826001600160a01b0381166106a657604051639cfea58360e01b81526001600160a01b0382166004820152602401610353565b82600560008282546106b89190610c4b565b90915550506001600160a01b038416600090815260066020526040812080548592906106e5908490610c4b565b90915550506005546040805185815260208101929092527fcc9c58b575eabd3f6a1ee653e91fcea3ff546867ffc3782a3bbca1f9b6dbb8df910160405180910390a150505050565b60005460405163a3ee740f60e01b81526001600160a01b0391821660048201529082166024820152604401610353565b3380610787576040516313053d9360e21b81526001600160a01b0382166004820152602401610353565b3360008181526006602052604090205483919082811061042857600033905085600560008282546107b89190610c38565b90915550506001600160a01b038116600090815260066020526040812080548892906107e5908490610c38565b90915550506005546040805188815260208101929092527f410c5c259085cde81fedf70c1aa308ec839373c26e9b7ada6560a2aca0254eb6910160405180910390a1505050505050565b60015433906001600160a01b031681036108a75760018054600080546001600160a01b0383166001600160a01b03199182168117835592169092556040805191825260208201929092527fb532073b38c83145e3e5135377a08bf9aab55bc0fd7c1179cd4fb995d2a5159c910160405180910390a150565b60015460405163176f517960e01b81526001600160a01b0391821660048201529082166024820152604401610353565b6060600380546102a890610be8565b60003380610912576040516313053d9360e21b81526001600160a01b0382166004820152602401610353565b836001600160a01b03811661094557604051639cfea58360e01b81526001600160a01b0382166004820152602401610353565b336000818152600660205260409020548591908281106104285733600081815260066020908152604080832080548c900390556001600160a01b038c168084529281902080548c019055518a815283917fddf252ad1be2c89b69c2b068fc378daa952ba7f163c4a11628f55a4df523b3ef9101610416565b60005433906001600160a01b0316810361072d576001600160a01b03821615610a3557600180546001600160a01b0319166001600160a01b0384169081179091556040519081527f7d5f578daab924f3f271d863dd8729e6970e9186812579e22f892146def80f679060200160405180910390a15050565b604051633484b10360e11b81526001600160a01b0383166004820152602401610353565b6001600160a01b038083166000908152600760209081526040808320938516835292905220545b92915050565b600060208284031215610a9857600080fd5b81356001600160e01b03198116811461065857600080fd5b602081526000825180602084015260005b81811015610ade5760208186018101516040868401015201610ac1565b506000604082850101526040601f19601f83011684010191505092915050565b80356001600160a01b0381168114610b1557600080fd5b919050565b60008060408385031215610b2d57600080fd5b610b3683610afe565b946020939093013593505050565b600080600060608486031215610b5957600080fd5b610b6284610afe565b9250610b7060208501610afe565b929592945050506040919091013590565b600060208284031215610b9357600080fd5b5035919050565b600060208284031215610bac57600080fd5b61065882610afe565b60008060408385031215610bc857600080fd5b610bd183610afe565b9150610bdf60208401610afe565b90509250929050565b600181811c90821680610bfc57607f821691505b602082108103610c1c57634e487b7160e01b600052602260045260246000fd5b50919050565b634e487b7160e01b600052601160045260246000fd5b81810381811115610a8057610a80610c22565b80820180821115610a8057610a80610c2256fea2646970667358221220e39fd5c2cba79cbb16055319ccafc3a73b541437af06b3f0c3b9a4b38022167464736f6c634300081c0033","opcodes":"PUSH1 0x80 PUSH1 0x40 MSTORE CALLVALUE DUP1 ISZERO PUSH2 0x10 JUMPI PUSH1 0x0 DUP1 REVERT JUMPDEST POP PUSH1 0x40 MLOAD PUSH2 0xFFA CODESIZE SUB DUP1 PUSH2 0xFFA DUP4 CODECOPY DUP2 ADD PUSH1 0x40 DUP2 SWAP1 MSTORE PUSH2 0x2F SWAP2 PUSH2 0x187 JUMP JUMPDEST PUSH1 0x0 DUP1 SLOAD PUSH1 0x1 PUSH1 0x1 PUSH1 0xA0 SHL SUB NOT AND CALLER OR SWAP1 SSTORE PUSH1 0x2 PUSH2 0x4D DUP6 DUP3 PUSH2 0x299 JUMP JUMPDEST POP PUSH1 0x3 PUSH2 0x5A DUP5 DUP3 PUSH2 0x299 JUMP JUMPDEST POP PUSH1 0x4 DUP1 SLOAD PUSH1 0xFF NOT AND PUSH1 0xFF DUP5 AND OR SWAP1 SSTORE PUSH1 0x5 DUP2 SWAP1 SSTORE PUSH1 0x0 DUP1 SLOAD PUSH1 0x1 PUSH1 0x1 PUSH1 0xA0 SHL SUB SWAP1 DUP2 AND DUP3 MSTORE PUSH1 0x6 PUSH1 0x20 SWAP1 DUP2 MSTORE PUSH1 0x40 DUP1 DUP5 KECCAK256 DUP6 SWAP1 SSTORE DUP4 SLOAD SWAP1 MLOAD DUP6 DUP2 MSTORE SWAP3 AND SWAP3 SWAP2 PUSH32 0xDDF252AD1BE2C89B69C2B068FC378DAA952BA7F163C4A11628F55A4DF523B3EF SWAP2 ADD PUSH1 0x40 MLOAD DUP1 SWAP2 SUB SWAP1 LOG3 POP POP POP POP PUSH2 0x357 JUMP JUMPDEST PUSH4 0x4E487B71 PUSH1 0xE0 SHL PUSH1 0x0 MSTORE PUSH1 0x41 PUSH1 0x4 MSTORE PUSH1 0x24 PUSH1 0x0 REVERT JUMPDEST PUSH1 0x0 DUP3 PUSH1 0x1F DUP4 ADD SLT PUSH2 0xF5 JUMPI PUSH1 0x0 DUP1 REVERT JUMPDEST DUP2 MLOAD PUSH1 0x1 PUSH1 0x1 PUSH1 0x40 SHL SUB DUP2 GT ISZERO PUSH2 0x10E JUMPI PUSH2 0x10E PUSH2 0xCE JUMP JUMPDEST PUSH1 0x40 MLOAD PUSH1 0x1F DUP3 ADD PUSH1 0x1F NOT SWAP1 DUP2 AND PUSH1 0x3F ADD AND DUP2 ADD PUSH1 0x1 PUSH1 0x1 PUSH1 0x40 SHL SUB DUP2 GT DUP3 DUP3 LT OR ISZERO PUSH2 0x13C JUMPI PUSH2 0x13C PUSH2 0xCE JUMP JUMPDEST PUSH1 0x40 MSTORE DUP2 DUP2 MSTORE DUP4 DUP3 ADD PUSH1 0x20 ADD DUP6 LT ISZERO PUSH2 0x154 JUMPI PUSH1 0x0 DUP1 REVERT JUMPDEST PUSH1 0x0 JUMPDEST DUP3 DUP2 LT ISZERO PUSH2 0x173 JUMPI PUSH1 0x20 DUP2 DUP7 ADD DUP2 ADD MLOAD DUP4 DUP4 ADD DUP3 ADD MSTORE ADD PUSH2 0x157 JUMP JUMPDEST POP PUSH1 0x0 SWAP2 DUP2 ADD PUSH1 0x20 ADD SWAP2 SWAP1 SWAP2 MSTORE SWAP4 SWAP3 POP POP POP JUMP JUMPDEST PUSH1 0x0 DUP1 PUSH1 0x0 DUP1 PUSH1 0x80 DUP6 DUP8 SUB SLT ISZERO PUSH2 0x19D JUMPI PUSH1 0x0 DUP1 REVERT JUMPDEST DUP5 MLOAD PUSH1 0x1 PUSH1 0x1 PUSH1 0x40 SHL SUB DUP2 GT ISZERO PUSH2 0x1B3 JUMPI PUSH1 0x0 DUP1 REVERT JUMPDEST PUSH2 0x1BF DUP8 DUP3 DUP9 ADD PUSH2 0xE4 JUMP JUMPDEST PUSH1 0x20 DUP8 ADD MLOAD SWAP1 SWAP6 POP SWAP1 POP PUSH1 0x1 PUSH1 0x1 PUSH1 0x40 SHL SUB DUP2 GT ISZERO PUSH2 0x1DD JUMPI PUSH1 0x0 DUP1 REVERT JUMPDEST PUSH2 0x1E9 DUP8 DUP3 DUP9 ADD PUSH2 0xE4 JUMP JUMPDEST SWAP4 POP POP PUSH1 0x40 DUP6 ADD MLOAD PUSH1 0xFF DUP2 AND DUP2 EQ PUSH2 0x200 JUMPI PUSH1 0x0 DUP1 REVERT JUMPDEST PUSH1 0x60 SWAP6 SWAP1 SWAP6 ADD MLOAD SWAP4 SWAP7 SWAP3 SWAP6 POP POP POP JUMP JUMPDEST PUSH1 0x1 DUP2 DUP2 SHR SWAP1 DUP3 AND DUP1 PUSH2 0x224 JUMPI PUSH1 0x7F DUP3 AND SWAP2 POP JUMPDEST PUSH1 0x20 DUP3 LT DUP2 SUB PUSH2 0x244 JUMPI PUSH4 0x4E487B71 PUSH1 0xE0 SHL PUSH1 0x0 MSTORE PUSH1 0x22 PUSH1 0x4 MSTORE PUSH1 0x24 PUSH1 0x0 REVERT JUMPDEST POP SWAP2 SWAP1 POP JUMP JUMPDEST PUSH1 0x1F DUP3 GT ISZERO PUSH2 0x294 JUMPI DUP1 PUSH1 0x0 MSTORE PUSH1 0x20 PUSH1 0x0 KECCAK256 PUSH1 0x1F DUP5 ADD PUSH1 0x5 SHR DUP2 ADD PUSH1 0x20 DUP6 LT ISZERO PUSH2 0x271 JUMPI POP DUP1 JUMPDEST PUSH1 0x1F DUP5 ADD PUSH1 0x5 SHR DUP3 ADD SWAP2 POP JUMPDEST DUP2 DUP2 LT ISZERO PUSH2 0x291 JUMPI PUSH1 0x0 DUP2 SSTORE PUSH1 0x1 ADD PUSH2 0x27D JUMP JUMPDEST POP POP JUMPDEST POP POP POP JUMP JUMPDEST DUP2 MLOAD PUSH1 0x1 PUSH1 0x1 PUSH1 0x40 SHL SUB DUP2 GT ISZERO PUSH2 0x2B2 JUMPI PUSH2 0x2B2 PUSH2 0xCE JUMP JUMPDEST PUSH2 0x2C6 DUP2 PUSH2 0x2C0 DUP5 SLOAD PUSH2 0x210 JUMP JUMPDEST DUP5 PUSH2 0x24A JUMP JUMPDEST PUSH1 0x20 PUSH1 0x1F DUP3 GT PUSH1 0x1 DUP2 EQ PUSH2 0x2FA JUMPI PUSH1 0x0 DUP4 ISZERO PUSH2 0x2E2 JUMPI POP DUP5 DUP3 ADD MLOAD JUMPDEST PUSH1 0x0 NOT PUSH1 0x3 DUP6 SWAP1 SHL SHR NOT AND PUSH1 0x1 DUP5 SWAP1 SHL OR DUP5 SSTORE PUSH2 0x291 JUMP JUMPDEST PUSH1 0x0 DUP5 DUP2 MSTORE PUSH1 0x20 DUP2 KECCAK256 PUSH1 0x1F NOT DUP6 AND SWAP2 JUMPDEST DUP3 DUP2 LT ISZERO PUSH2 0x32A JUMPI DUP8 DUP6 ADD MLOAD DUP3 SSTORE PUSH1 0x20 SWAP5 DUP6 ADD SWAP5 PUSH1 0x1 SWAP1 SWAP3 ADD SWAP2 ADD PUSH2 0x30A JUMP JUMPDEST POP DUP5 DUP3 LT ISZERO PUSH2 0x348 JUMPI DUP7 DUP5 ADD MLOAD PUSH1 0x0 NOT PUSH1 0x3 DUP8 SWAP1 SHL PUSH1 0xF8 AND SHR NOT AND DUP2 SSTORE JUMPDEST POP POP POP POP PUSH1 0x1 SWAP1 DUP2 SHL ADD SWAP1 SSTORE POP JUMP JUMPDEST PUSH2 0xC94 DUP1 PUSH2 0x366 PUSH1 0x0 CODECOPY PUSH1 0x0 RETURN INVALID PUSH1 0x80 PUSH1 0x40 MSTORE CALLVALUE DUP1 ISZERO PUSH2 0x10 JUMPI PUSH1 0x0 DUP1 REVERT JUMPDEST POP PUSH1 0x4 CALLDATASIZE LT PUSH2 0x100 JUMPI PUSH1 0x0 CALLDATALOAD PUSH1 0xE0 SHR DUP1 PUSH4 0x62A09477 GT PUSH2 0x97 JUMPI DUP1 PUSH4 0xA9059CBB GT PUSH2 0x66 JUMPI DUP1 PUSH4 0xA9059CBB EQ PUSH2 0x21B JUMPI DUP1 PUSH4 0xC42069EC EQ PUSH2 0x22E JUMPI DUP1 PUSH4 0xDD62ED3E EQ PUSH2 0x241 JUMPI DUP1 PUSH4 0xE30C3978 EQ PUSH2 0x254 JUMPI PUSH1 0x0 DUP1 REVERT JUMPDEST DUP1 PUSH4 0x62A09477 EQ PUSH2 0x1B7 JUMPI DUP1 PUSH4 0x70A08231 EQ PUSH2 0x1BF JUMPI DUP1 PUSH4 0x8DA5CB5B EQ PUSH2 0x1E8 JUMPI DUP1 PUSH4 0x95D89B41 EQ PUSH2 0x213 JUMPI PUSH1 0x0 DUP1 REVERT JUMPDEST DUP1 PUSH4 0x23B872DD GT PUSH2 0xD3 JUMPI DUP1 PUSH4 0x23B872DD EQ PUSH2 0x167 JUMPI DUP1 PUSH4 0x313CE567 EQ PUSH2 0x17A JUMPI DUP1 PUSH4 0x40C10F19 EQ PUSH2 0x18F JUMPI DUP1 PUSH4 0x42966C68 EQ PUSH2 0x1A4 JUMPI PUSH1 0x0 DUP1 REVERT JUMPDEST DUP1 PUSH4 0x1FFC9A7 EQ PUSH2 0x105 JUMPI DUP1 PUSH4 0x6FDDE03 EQ PUSH2 0x12D JUMPI DUP1 PUSH4 0x95EA7B3 EQ PUSH2 0x142 JUMPI DUP1 PUSH4 0x18160DDD EQ PUSH2 0x155 JUMPI JUMPDEST PUSH1 0x0 DUP1 REVERT JUMPDEST PUSH2 0x118 PUSH2 0x113 CALLDATASIZE PUSH1 0x4 PUSH2 0xA86 JUMP JUMPDEST PUSH2 0x267 JUMP JUMPDEST PUSH1 0x40 MLOAD SWAP1 ISZERO ISZERO DUP2 MSTORE PUSH1 0x20 ADD JUMPDEST PUSH1 0x40 MLOAD DUP1 SWAP2 SUB SWAP1 RETURN JUMPDEST PUSH2 0x135 PUSH2 0x299 JUMP JUMPDEST PUSH1 0x40 MLOAD PUSH2 0x124 SWAP2 SWAP1 PUSH2 0xAB0 JUMP JUMPDEST PUSH2 0x118 PUSH2 0x150 CALLDATASIZE PUSH1 0x4 PUSH2 0xB1A JUMP JUMPDEST PUSH2 0x32B JUMP JUMPDEST PUSH1 0x5 SLOAD JUMPDEST PUSH1 0x40 MLOAD SWAP1 DUP2 MSTORE PUSH1 0x20 ADD PUSH2 0x124 JUMP JUMPDEST PUSH2 0x118 PUSH2 0x175 CALLDATASIZE PUSH1 0x4 PUSH2 0xB44 JUMP JUMPDEST PUSH2 0x474 JUMP JUMPDEST PUSH1 0x4 SLOAD PUSH1 0x40 MLOAD PUSH1 0xFF SWAP1 SWAP2 AND DUP2 MSTORE PUSH1 0x20 ADD PUSH2 0x124 JUMP JUMPDEST PUSH2 0x1A2 PUSH2 0x19D CALLDATASIZE PUSH1 0x4 PUSH2 0xB1A JUMP JUMPDEST PUSH2 0x65F JUMP JUMPDEST STOP JUMPDEST PUSH2 0x1A2 PUSH2 0x1B2 CALLDATASIZE PUSH1 0x4 PUSH2 0xB81 JUMP JUMPDEST PUSH2 0x75D JUMP JUMPDEST PUSH2 0x1A2 PUSH2 0x82F JUMP JUMPDEST PUSH2 0x159 PUSH2 0x1CD CALLDATASIZE PUSH1 0x4 PUSH2 0xB9A JUMP JUMPDEST PUSH1 0x1 PUSH1 0x1 PUSH1 0xA0 SHL SUB AND PUSH1 0x0 SWAP1 DUP2 MSTORE PUSH1 0x6 PUSH1 0x20 MSTORE PUSH1 0x40 SWAP1 KECCAK256 SLOAD SWAP1 JUMP JUMPDEST PUSH1 0x0 SLOAD PUSH2 0x1FB SWAP1 PUSH1 0x1 PUSH1 0x1 PUSH1 0xA0 SHL SUB AND DUP2 JUMP JUMPDEST PUSH1 0x40 MLOAD PUSH1 0x1 PUSH1 0x1 PUSH1 0xA0 SHL SUB SWAP1 SWAP2 AND DUP2 MSTORE PUSH1 0x20 ADD PUSH2 0x124 JUMP JUMPDEST PUSH2 0x135 PUSH2 0x8D7 JUMP JUMPDEST PUSH2 0x118 PUSH2 0x229 CALLDATASIZE PUSH1 0x4 PUSH2 0xB1A JUMP JUMPDEST PUSH2 0x8E6 JUMP JUMPDEST PUSH2 0x1A2 PUSH2 0x23C CALLDATASIZE PUSH1 0x4 PUSH2 0xB9A JUMP JUMPDEST PUSH2 0x9BD JUMP JUMPDEST PUSH2 0x159 PUSH2 0x24F CALLDATASIZE PUSH1 0x4 PUSH2 0xBB5 JUMP JUMPDEST PUSH2 0xA59 JUMP JUMPDEST PUSH1 0x1 SLOAD PUSH2 0x1FB SWAP1 PUSH1 0x1 PUSH1 0x1 PUSH1 0xA0 SHL SUB AND DUP2 JUMP JUMPDEST PUSH1 0x0 PUSH1 0x1 PUSH1 0x1 PUSH1 0xE0 SHL SUB NOT DUP3 AND PUSH4 0x1FFC9A7 PUSH1 0xE0 SHL DUP2 EQ SWAP1 PUSH4 0x36372B07 PUSH1 0xE0 SHL EQ DUP2 DUP1 PUSH2 0x291 JUMPI POP DUP1 JUMPDEST SWAP5 SWAP4 POP POP POP POP JUMP JUMPDEST PUSH1 0x60 PUSH1 0x2 DUP1 SLOAD PUSH2 0x2A8 SWAP1 PUSH2 0xBE8 JUMP JUMPDEST DUP1 PUSH1 0x1F ADD PUSH1 0x20 DUP1 SWAP2 DIV MUL PUSH1 0x20 ADD PUSH1 0x40 MLOAD SWAP1 DUP2 ADD PUSH1 0x40 MSTORE DUP1 SWAP3 SWAP2 SWAP1 DUP2 DUP2 MSTORE PUSH1 0x20 ADD DUP3 DUP1 SLOAD PUSH2 0x2D4 SWAP1 PUSH2 0xBE8 JUMP JUMPDEST DUP1 ISZERO PUSH2 0x321 JUMPI DUP1 PUSH1 0x1F LT PUSH2 0x2F6 JUMPI PUSH2 0x100 DUP1 DUP4 SLOAD DIV MUL DUP4 MSTORE SWAP2 PUSH1 0x20 ADD SWAP2 PUSH2 0x321 JUMP JUMPDEST DUP3 ADD SWAP2 SWAP1 PUSH1 0x0 MSTORE PUSH1 0x20 PUSH1 0x0 KECCAK256 SWAP1 JUMPDEST DUP2 SLOAD DUP2 MSTORE SWAP1 PUSH1 0x1 ADD SWAP1 PUSH1 0x20 ADD DUP1 DUP4 GT PUSH2 0x304 JUMPI DUP3 SWAP1 SUB PUSH1 0x1F AND DUP3 ADD SWAP2 JUMPDEST POP POP POP POP POP SWAP1 POP SWAP1 JUMP JUMPDEST PUSH1 0x0 CALLER DUP1 PUSH2 0x35C JUMPI PUSH1 0x40 MLOAD PUSH4 0x22F051B1 PUSH1 0xE2 SHL DUP2 MSTORE PUSH1 0x1 PUSH1 0x1 PUSH1 0xA0 SHL SUB DUP3 AND PUSH1 0x4 DUP3 ADD MSTORE PUSH1 0x24 ADD JUMPDEST PUSH1 0x40 MLOAD DUP1 SWAP2 SUB SWAP1 REVERT JUMPDEST DUP4 PUSH1 0x1 PUSH1 0x1 PUSH1 0xA0 SHL SUB DUP2 AND PUSH2 0x38F JUMPI PUSH1 0x40 MLOAD PUSH4 0x270AF7ED PUSH1 0xE1 SHL DUP2 MSTORE PUSH1 0x1 PUSH1 0x1 PUSH1 0xA0 SHL SUB DUP3 AND PUSH1 0x4 DUP3 ADD MSTORE PUSH1 0x24 ADD PUSH2 0x353 JUMP JUMPDEST CALLER PUSH1 0x0 DUP2 DUP2 MSTORE PUSH1 0x6 PUSH1 0x20 MSTORE PUSH1 0x40 SWAP1 KECCAK256 SLOAD DUP6 SWAP2 SWAP1 DUP3 DUP2 LT PUSH2 0x428 JUMPI CALLER PUSH1 0x0 DUP2 DUP2 MSTORE PUSH1 0x7 PUSH1 0x20 SWAP1 DUP2 MSTORE PUSH1 0x40 DUP1 DUP4 KECCAK256 PUSH1 0x1 PUSH1 0x1 PUSH1 0xA0 SHL SUB DUP14 AND DUP1 DUP6 MSTORE SWAP1 DUP4 MSTORE DUP2 DUP5 KECCAK256 DUP13 SWAP1 SSTORE DUP5 DUP5 MSTORE PUSH1 0x8 DUP4 MSTORE SWAP3 DUP2 SWAP1 KECCAK256 DUP1 SLOAD PUSH1 0x1 PUSH1 0x1 PUSH1 0xA0 SHL SUB NOT AND DUP5 OR SWAP1 SSTORE MLOAD DUP11 DUP2 MSTORE DUP4 SWAP2 PUSH32 0x8C5BE1E5EBEC7D5BD14F71427D1E84F3DD0314C0F7B2291E5B200AC8C7C3B925 SWAP2 ADD JUMPDEST PUSH1 0x40 MLOAD DUP1 SWAP2 SUB SWAP1 LOG3 PUSH1 0x1 SWAP7 POP POP PUSH2 0x469 JUMP JUMPDEST PUSH1 0x0 PUSH2 0x434 DUP3 DUP6 PUSH2 0xC38 JUMP JUMPDEST PUSH1 0x40 MLOAD PUSH4 0xDB42144D PUSH1 0xE0 SHL DUP2 MSTORE PUSH1 0x1 PUSH1 0x1 PUSH1 0xA0 SHL SUB DUP6 AND PUSH1 0x4 DUP3 ADD MSTORE PUSH1 0x24 DUP2 ADD DUP5 SWAP1 MSTORE PUSH1 0x44 DUP2 ADD DUP3 SWAP1 MSTORE SWAP1 SWAP2 POP PUSH1 0x64 ADD PUSH2 0x353 JUMP JUMPDEST POP POP POP POP POP SWAP3 SWAP2 POP POP JUMP JUMPDEST PUSH1 0x0 PUSH1 0x1 PUSH1 0x1 PUSH1 0xA0 SHL SUB DUP5 AND ISZERO PUSH2 0x634 JUMPI PUSH1 0x1 PUSH1 0x1 PUSH1 0xA0 SHL SUB DUP4 AND ISZERO PUSH2 0x610 JUMPI PUSH1 0x1 PUSH1 0x1 PUSH1 0xA0 SHL SUB DUP5 AND PUSH1 0x0 SWAP1 DUP2 MSTORE PUSH1 0x6 PUSH1 0x20 SWAP1 DUP2 MSTORE PUSH1 0x40 DUP1 DUP4 KECCAK256 SLOAD PUSH1 0x7 DUP4 MSTORE DUP2 DUP5 KECCAK256 CALLER DUP1 DUP7 MSTORE SWAP4 MSTORE SWAP1 DUP4 KECCAK256 SLOAD SWAP2 SWAP3 SWAP1 SWAP2 SWAP1 DUP6 DUP4 LT PUSH2 0x5D1 JUMPI DUP4 PUSH1 0x1 PUSH1 0x1 PUSH1 0xA0 SHL SUB AND DUP9 PUSH1 0x1 PUSH1 0x1 PUSH1 0xA0 SHL SUB AND EQ PUSH2 0x55A JUMPI DUP6 DUP3 LT ISZERO PUSH2 0x52D JUMPI PUSH2 0x4F8 DUP3 DUP8 PUSH2 0xC38 JUMP JUMPDEST PUSH1 0x40 MLOAD PUSH4 0xC95CF27 PUSH1 0xE1 SHL DUP2 MSTORE PUSH1 0x1 PUSH1 0x1 PUSH1 0xA0 SHL SUB DUP7 AND PUSH1 0x4 DUP3 ADD MSTORE PUSH1 0x24 DUP2 ADD DUP5 SWAP1 MSTORE PUSH1 0x44 DUP2 ADD DUP3 SWAP1 MSTORE SWAP1 SWAP2 POP PUSH1 0x64 ADD PUSH2 0x353 JUMP JUMPDEST PUSH1 0x1 PUSH1 0x1 PUSH1 0xA0 SHL SUB DUP1 DUP10 AND PUSH1 0x0 SWAP1 DUP2 MSTORE PUSH1 0x7 PUSH1 0x20 SWAP1 DUP2 MSTORE PUSH1 0x40 DUP1 DUP4 KECCAK256 SWAP4 DUP9 AND DUP4 MSTORE SWAP3 SWAP1 MSTORE KECCAK256 DUP1 SLOAD DUP8 SWAP1 SUB SWAP1 SSTORE JUMPDEST PUSH1 0x1 PUSH1 0x1 PUSH1 0xA0 SHL SUB DUP1 DUP10 AND PUSH1 0x0 DUP2 DUP2 MSTORE PUSH1 0x6 PUSH1 0x20 MSTORE PUSH1 0x40 DUP1 DUP3 KECCAK256 DUP1 SLOAD DUP12 SWAP1 SUB SWAP1 SSTORE SWAP3 DUP11 AND DUP1 DUP3 MSTORE SWAP1 DUP4 SWAP1 KECCAK256 DUP1 SLOAD DUP11 ADD SWAP1 SSTORE SWAP2 MLOAD PUSH32 0xDDF252AD1BE2C89B69C2B068FC378DAA952BA7F163C4A11628F55A4DF523B3EF SWAP1 PUSH2 0x5BC SWAP1 DUP11 DUP2 MSTORE PUSH1 0x20 ADD SWAP1 JUMP JUMPDEST PUSH1 0x40 MLOAD DUP1 SWAP2 SUB SWAP1 LOG3 PUSH1 0x1 SWAP5 POP POP POP POP POP PUSH2 0x658 JUMP JUMPDEST PUSH2 0x5DB DUP4 DUP8 PUSH2 0xC38 JUMP JUMPDEST PUSH1 0x40 MLOAD PUSH4 0xDB42144D PUSH1 0xE0 SHL DUP2 MSTORE PUSH1 0x1 PUSH1 0x1 PUSH1 0xA0 SHL SUB DUP7 AND PUSH1 0x4 DUP3 ADD MSTORE PUSH1 0x24 DUP2 ADD DUP6 SWAP1 MSTORE PUSH1 0x44 DUP2 ADD DUP3 SWAP1 MSTORE SWAP1 SWAP2 POP PUSH1 0x64 ADD PUSH2 0x353 JUMP JUMPDEST PUSH1 0x40 MLOAD PUSH4 0x9CFEA583 PUSH1 0xE0 SHL DUP2 MSTORE PUSH1 0x1 PUSH1 0x1 PUSH1 0xA0 SHL SUB DUP5 AND PUSH1 0x4 DUP3 ADD MSTORE PUSH1 0x24 ADD PUSH2 0x353 JUMP JUMPDEST PUSH1 0x40 MLOAD PUSH4 0x13053D93 PUSH1 0xE2 SHL DUP2 MSTORE PUSH1 0x1 PUSH1 0x1 PUSH1 0xA0 SHL SUB DUP6 AND PUSH1 0x4 DUP3 ADD MSTORE PUSH1 0x24 ADD PUSH2 0x353 JUMP JUMPDEST SWAP4 SWAP3 POP POP POP JUMP JUMPDEST PUSH1 0x0 SLOAD CALLER SWAP1 PUSH1 0x1 PUSH1 0x1 PUSH1 0xA0 SHL SUB AND DUP2 SUB PUSH2 0x72D JUMPI DUP3 PUSH1 0x1 PUSH1 0x1 PUSH1 0xA0 SHL SUB DUP2 AND PUSH2 0x6A6 JUMPI PUSH1 0x40 MLOAD PUSH4 0x9CFEA583 PUSH1 0xE0 SHL DUP2 MSTORE PUSH1 0x1 PUSH1 0x1 PUSH1 0xA0 SHL SUB DUP3 AND PUSH1 0x4 DUP3 ADD MSTORE PUSH1 0x24 ADD PUSH2 0x353 JUMP JUMPDEST DUP3 PUSH1 0x5 PUSH1 0x0 DUP3 DUP3 SLOAD PUSH2 0x6B8 SWAP2 SWAP1 PUSH2 0xC4B JUMP JUMPDEST SWAP1 SWAP2 SSTORE POP POP PUSH1 0x1 PUSH1 0x1 PUSH1 0xA0 SHL SUB DUP5 AND PUSH1 0x0 SWAP1 DUP2 MSTORE PUSH1 0x6 PUSH1 0x20 MSTORE PUSH1 0x40 DUP2 KECCAK256 DUP1 SLOAD DUP6 SWAP3 SWAP1 PUSH2 0x6E5 SWAP1 DUP5 SWAP1 PUSH2 0xC4B JUMP JUMPDEST SWAP1 SWAP2 SSTORE POP POP PUSH1 0x5 SLOAD PUSH1 0x40 DUP1 MLOAD DUP6 DUP2 MSTORE PUSH1 0x20 DUP2 ADD SWAP3 SWAP1 SWAP3 MSTORE PUSH32 0xCC9C58B575EABD3F6A1EE653E91FCEA3FF546867FFC3782A3BBCA1F9B6DBB8DF SWAP2 ADD PUSH1 0x40 MLOAD DUP1 SWAP2 SUB SWAP1 LOG1 POP POP POP POP JUMP JUMPDEST PUSH1 0x0 SLOAD PUSH1 0x40 MLOAD PUSH4 0xA3EE740F PUSH1 0xE0 SHL DUP2 MSTORE PUSH1 0x1 PUSH1 0x1 PUSH1 0xA0 SHL SUB SWAP2 DUP3 AND PUSH1 0x4 DUP3 ADD MSTORE SWAP1 DUP3 AND PUSH1 0x24 DUP3 ADD MSTORE PUSH1 0x44 ADD PUSH2 0x353 JUMP JUMPDEST CALLER DUP1 PUSH2 0x787 JUMPI PUSH1 0x40 MLOAD PUSH4 0x13053D93 PUSH1 0xE2 SHL DUP2 MSTORE PUSH1 0x1 PUSH1 0x1 PUSH1 0xA0 SHL SUB DUP3 AND PUSH1 0x4 DUP3 ADD MSTORE PUSH1 0x24 ADD PUSH2 0x353 JUMP JUMPDEST CALLER PUSH1 0x0 DUP2 DUP2 MSTORE PUSH1 0x6 PUSH1 0x20 MSTORE PUSH1 0x40 SWAP1 KECCAK256 SLOAD DUP4 SWAP2 SWAP1 DUP3 DUP2 LT PUSH2 0x428 JUMPI PUSH1 0x0 CALLER SWAP1 POP DUP6 PUSH1 0x5 PUSH1 0x0 DUP3 DUP3 SLOAD PUSH2 0x7B8 SWAP2 SWAP1 PUSH2 0xC38 JUMP JUMPDEST SWAP1 SWAP2 SSTORE POP POP PUSH1 0x1 PUSH1 0x1 PUSH1 0xA0 SHL SUB DUP2 AND PUSH1 0x0 SWAP1 DUP2 MSTORE PUSH1 0x6 PUSH1 0x20 MSTORE PUSH1 0x40 DUP2 KECCAK256 DUP1 SLOAD DUP9 SWAP3 SWAP1 PUSH2 0x7E5 SWAP1 DUP5 SWAP1 PUSH2 0xC38 JUMP JUMPDEST SWAP1 SWAP2 SSTORE POP POP PUSH1 0x5 SLOAD PUSH1 0x40 DUP1 MLOAD DUP9 DUP2 MSTORE PUSH1 0x20 DUP2 ADD SWAP3 SWAP1 SWAP3 MSTORE PUSH32 0x410C5C259085CDE81FEDF70C1AA308EC839373C26E9B7ADA6560A2ACA0254EB6 SWAP2 ADD PUSH1 0x40 MLOAD DUP1 SWAP2 SUB SWAP1 LOG1 POP POP POP POP POP POP JUMP JUMPDEST PUSH1 0x1 SLOAD CALLER SWAP1 PUSH1 0x1 PUSH1 0x1 PUSH1 0xA0 SHL SUB AND DUP2 SUB PUSH2 0x8A7 JUMPI PUSH1 0x1 DUP1 SLOAD PUSH1 0x0 DUP1 SLOAD PUSH1 0x1 PUSH1 0x1 PUSH1 0xA0 SHL SUB DUP4 AND PUSH1 0x1 PUSH1 0x1 PUSH1 0xA0 SHL SUB NOT SWAP2 DUP3 AND DUP2 OR DUP4 SSTORE SWAP3 AND SWAP1 SWAP3 SSTORE PUSH1 0x40 DUP1 MLOAD SWAP2 DUP3 MSTORE PUSH1 0x20 DUP3 ADD SWAP3 SWAP1 SWAP3 MSTORE PUSH32 0xB532073B38C83145E3E5135377A08BF9AAB55BC0FD7C1179CD4FB995D2A5159C SWAP2 ADD PUSH1 0x40 MLOAD DUP1 SWAP2 SUB SWAP1 LOG1 POP JUMP JUMPDEST PUSH1 0x1 SLOAD PUSH1 0x40 MLOAD PUSH4 0x176F5179 PUSH1 0xE0 SHL DUP2 MSTORE PUSH1 0x1 PUSH1 0x1 PUSH1 0xA0 SHL SUB SWAP2 DUP3 AND PUSH1 0x4 DUP3 ADD MSTORE SWAP1 DUP3 AND PUSH1 0x24 DUP3 ADD MSTORE PUSH1 0x44 ADD PUSH2 0x353 JUMP JUMPDEST PUSH1 0x60 PUSH1 0x3 DUP1 SLOAD PUSH2 0x2A8 SWAP1 PUSH2 0xBE8 JUMP JUMPDEST PUSH1 0x0 CALLER DUP1 PUSH2 0x912 JUMPI PUSH1 0x40 MLOAD PUSH4 0x13053D93 PUSH1 0xE2 SHL DUP2 MSTORE PUSH1 0x1 PUSH1 0x1 PUSH1 0xA0 SHL SUB DUP3 AND PUSH1 0x4 DUP3 ADD MSTORE PUSH1 0x24 ADD PUSH2 0x353 JUMP JUMPDEST DUP4 PUSH1 0x1 PUSH1 0x1 PUSH1 0xA0 SHL SUB DUP2 AND PUSH2 0x945 JUMPI PUSH1 0x40 MLOAD PUSH4 0x9CFEA583 PUSH1 0xE0 SHL DUP2 MSTORE PUSH1 0x1 PUSH1 0x1 PUSH1 0xA0 SHL SUB DUP3 AND PUSH1 0x4 DUP3 ADD MSTORE PUSH1 0x24 ADD PUSH2 0x353 JUMP JUMPDEST CALLER PUSH1 0x0 DUP2 DUP2 MSTORE PUSH1 0x6 PUSH1 0x20 MSTORE PUSH1 0x40 SWAP1 KECCAK256 SLOAD DUP6 SWAP2 SWAP1 DUP3 DUP2 LT PUSH2 0x428 JUMPI CALLER PUSH1 0x0 DUP2 DUP2 MSTORE PUSH1 0x6 PUSH1 0x20 SWAP1 DUP2 MSTORE PUSH1 0x40 DUP1 DUP4 KECCAK256 DUP1 SLOAD DUP13 SWAP1 SUB SWAP1 SSTORE PUSH1 0x1 PUSH1 0x1 PUSH1 0xA0 SHL SUB DUP13 AND DUP1 DUP5 MSTORE SWAP3 DUP2 SWAP1 KECCAK256 DUP1 SLOAD DUP13 ADD SWAP1 SSTORE MLOAD DUP11 DUP2 MSTORE DUP4 SWAP2 PUSH32 0xDDF252AD1BE2C89B69C2B068FC378DAA952BA7F163C4A11628F55A4DF523B3EF SWAP2 ADD PUSH2 0x416 JUMP JUMPDEST PUSH1 0x0 SLOAD CALLER SWAP1 PUSH1 0x1 PUSH1 0x1 PUSH1 0xA0 SHL SUB AND DUP2 SUB PUSH2 0x72D JUMPI PUSH1 0x1 PUSH1 0x1 PUSH1 0xA0 SHL SUB DUP3 AND ISZERO PUSH2 0xA35 JUMPI PUSH1 0x1 DUP1 SLOAD PUSH1 0x1 PUSH1 0x1 PUSH1 0xA0 SHL SUB NOT AND PUSH1 0x1 PUSH1 0x1 PUSH1 0xA0 SHL SUB DUP5 AND SWAP1 DUP2 OR SWAP1 SWAP2 SSTORE PUSH1 0x40 MLOAD SWAP1 DUP2 MSTORE PUSH32 0x7D5F578DAAB924F3F271D863DD8729E6970E9186812579E22F892146DEF80F67 SWAP1 PUSH1 0x20 ADD PUSH1 0x40 MLOAD DUP1 SWAP2 SUB SWAP1 LOG1 POP POP JUMP JUMPDEST PUSH1 0x40 MLOAD PUSH4 0x3484B103 PUSH1 0xE1 SHL DUP2 MSTORE PUSH1 0x1 PUSH1 0x1 PUSH1 0xA0 SHL SUB DUP4 AND PUSH1 0x4 DUP3 ADD MSTORE PUSH1 0x24 ADD PUSH2 0x353 JUMP JUMPDEST PUSH1 0x1 PUSH1 0x1 PUSH1 0xA0 SHL SUB DUP1 DUP4 AND PUSH1 0x0 SWAP1 DUP2 MSTORE PUSH1 0x7 PUSH1 0x20 SWAP1 DUP2 MSTORE PUSH1 0x40 DUP1 DUP4 KECCAK256 SWAP4 DUP6 AND DUP4 MSTORE SWAP3 SWAP1 MSTORE KECCAK256 SLOAD JUMPDEST SWAP3 SWAP2 POP POP JUMP JUMPDEST PUSH1 0x0 PUSH1 0x20 DUP3 DUP5 SUB SLT ISZERO PUSH2 0xA98 JUMPI PUSH1 0x0 DUP1 REVERT JUMPDEST DUP2 CALLDATALOAD PUSH1 0x1 PUSH1 0x1 PUSH1 0xE0 SHL SUB NOT DUP2 AND DUP2 EQ PUSH2 0x658 JUMPI PUSH1 0x0 DUP1 REVERT JUMPDEST PUSH1 0x20 DUP2 MSTORE PUSH1 0x0 DUP3 MLOAD DUP1 PUSH1 0x20 DUP5 ADD MSTORE PUSH1 0x0 JUMPDEST DUP2 DUP2 LT ISZERO PUSH2 0xADE JUMPI PUSH1 0x20 DUP2 DUP7 ADD DUP2 ADD MLOAD PUSH1 0x40 DUP7 DUP5 ADD ADD MSTORE ADD PUSH2 0xAC1 JUMP JUMPDEST POP PUSH1 0x0 PUSH1 0x40 DUP3 DUP6 ADD ADD MSTORE PUSH1 0x40 PUSH1 0x1F NOT PUSH1 0x1F DUP4 ADD AND DUP5 ADD ADD SWAP2 POP POP SWAP3 SWAP2 POP POP JUMP JUMPDEST DUP1 CALLDATALOAD PUSH1 0x1 PUSH1 0x1 PUSH1 0xA0 SHL SUB DUP2 AND DUP2 EQ PUSH2 0xB15 JUMPI PUSH1 0x0 DUP1 REVERT JUMPDEST SWAP2 SWAP1 POP JUMP JUMPDEST PUSH1 0x0 DUP1 PUSH1 0x40 DUP4 DUP6 SUB SLT ISZERO PUSH2 0xB2D JUMPI PUSH1 0x0 DUP1 REVERT JUMPDEST PUSH2 0xB36 DUP4 PUSH2 0xAFE JUMP JUMPDEST SWAP5 PUSH1 0x20 SWAP4 SWAP1 SWAP4 ADD CALLDATALOAD SWAP4 POP POP POP JUMP JUMPDEST PUSH1 0x0 DUP1 PUSH1 0x0 PUSH1 0x60 DUP5 DUP7 SUB SLT ISZERO PUSH2 0xB59 JUMPI PUSH1 0x0 DUP1 REVERT JUMPDEST PUSH2 0xB62 DUP5 PUSH2 0xAFE JUMP JUMPDEST SWAP3 POP PUSH2 0xB70 PUSH1 0x20 DUP6 ADD PUSH2 0xAFE JUMP JUMPDEST SWAP3 SWAP6 SWAP3 SWAP5 POP POP POP PUSH1 0x40 SWAP2 SWAP1 SWAP2 ADD CALLDATALOAD SWAP1 JUMP JUMPDEST PUSH1 0x0 PUSH1 0x20 DUP3 DUP5 SUB SLT ISZERO PUSH2 0xB93 JUMPI PUSH1 0x0 DUP1 REVERT JUMPDEST POP CALLDATALOAD SWAP2 SWAP1 POP JUMP JUMPDEST PUSH1 0x0 PUSH1 0x20 DUP3 DUP5 SUB SLT ISZERO PUSH2 0xBAC JUMPI PUSH1 0x0 DUP1 REVERT JUMPDEST PUSH2 0x658 DUP3 PUSH2 0xAFE JUMP JUMPDEST PUSH1 0x0 DUP1 PUSH1 0x40 DUP4 DUP6 SUB SLT ISZERO PUSH2 0xBC8 JUMPI PUSH1 0x0 DUP1 REVERT JUMPDEST PUSH2 0xBD1 DUP4 PUSH2 0xAFE JUMP JUMPDEST SWAP2 POP PUSH2 0xBDF PUSH1 0x20 DUP5 ADD PUSH2 0xAFE JUMP JUMPDEST SWAP1 POP SWAP3 POP SWAP3 SWAP1 POP JUMP JUMPDEST PUSH1 0x1 DUP2 DUP2 SHR SWAP1 DUP3 AND DUP1 PUSH2 0xBFC JUMPI PUSH1 0x7F DUP3 AND SWAP2 POP JUMPDEST PUSH1 0x20 DUP3 LT DUP2 SUB PUSH2 0xC1C JUMPI PUSH4 0x4E487B71 PUSH1 0xE0 SHL PUSH1 0x0 MSTORE PUSH1 0x22 PUSH1 0x4 MSTORE PUSH1 0x24 PUSH1 0x0 REVERT JUMPDEST POP SWAP2 SWAP1 POP JUMP JUMPDEST PUSH4 0x4E487B71 PUSH1 0xE0 SHL PUSH1 0x0 MSTORE PUSH1 0x11 PUSH1 0x4 MSTORE PUSH1 0x24 PUSH1 0x0 REVERT JUMPDEST DUP2 DUP2 SUB DUP2 DUP2 GT ISZERO PUSH2 0xA80 JUMPI PUSH2 0xA80 PUSH2 0xC22 JUMP JUMPDEST DUP1 DUP3 ADD DUP1 DUP3 GT ISZERO PUSH2 0xA80 JUMPI PUSH2 0xA80 PUSH2 0xC22 JUMP INVALID LOG2 PUSH5 0x6970667358 0x22 SLT KECCAK256 0xE3 SWAP16 0xD5 0xC2 0xCB 0xA7 SWAP13 0xBB AND SDIV MSTORE8 NOT 0xCC 0xAF 0xC3 0xA7 EXTCODESIZE SLOAD EQ CALLDATACOPY 0xAF MOD 0xB3 CREATE 0xC3 0xB9 LOG4 0xB3 DUP1 0x22 AND PUSH21 0x64736F6C634300081C003300000000000000000000 "},"methodIdentifiers":{"allowance(address,address)":"dd62ed3e","approve(address,uint256)":"095ea7b3","balanceOf(address)":"70a08231","burn(uint256)":"42966c68","changeOwner()":"62a09477","decimals()":"313ce567","mint(address,uint256)":"40c10f19","name()":"06fdde03","owner()":"8da5cb5b","pendingOwner()":"e30c3978","setPendingOwner(address)":"c42069ec","supportsInterface(bytes4)":"01ffc9a7","symbol()":"95d89b41","totalSupply()":"18160ddd","transfer(address,uint256)":"a9059cbb","transferFrom(address,address,uint256)":"23b872dd"}}}}}