{
  "_format": "hh-sol-artifact-1",
  "contractName": "ERC20",
  "sourceName": "contracts/erc20.sol",
  "abi": [
    {
      "inputs": [
        {
          "internalType": "string",
          "name": "tokenName",
          "type": "string"
        },
        {
          "internalType": "string",
          "name": "tokenSymbol",
          "type": "string"
        },
        {
          "internalType": "uint8",
          "name": "unitDecimals",
          "type": "uint8"
        },
        {
          "internalType": "uint256",
          "name": "totalSupplyAmount",
          "type": "uint256"
        }
      ],
      "stateMutability": "nonpayable",
      "type": "constructor"
    },
    {
      "inputs": [],
      "name": "theBalanceIsNotEnoughToTransferOrApprove",
      "type": "error"
    },
    {
      "inputs": [],
      "name": "theRequesterIsNotAuthorized",
      "type": "error"
    },
    {
      "inputs": [],
      "name": "yourApprovedValueToTransferIsLessThanValueYouWant",
      "type": "error"
    },
    {
      "anonymous": false,
      "inputs": [
        {
          "indexed": true,
          "internalType": "address",
          "name": "_owner",
          "type": "address"
        },
        {
          "indexed": true,
          "internalType": "address",
          "name": "_spender",
          "type": "address"
        },
        {
          "indexed": false,
          "internalType": "uint256",
          "name": "_value",
          "type": "uint256"
        }
      ],
      "name": "Approval",
      "type": "event"
    },
    {
      "anonymous": false,
      "inputs": [
        {
          "indexed": true,
          "internalType": "address",
          "name": "_from",
          "type": "address"
        },
        {
          "indexed": true,
          "internalType": "address",
          "name": "_to",
          "type": "address"
        },
        {
          "indexed": false,
          "internalType": "uint256",
          "name": "_value",
          "type": "uint256"
        }
      ],
      "name": "Transfer",
      "type": "event"
    },
    {
      "inputs": [
        {
          "internalType": "address",
          "name": "_owner",
          "type": "address"
        },
        {
          "internalType": "address",
          "name": "_spender",
          "type": "address"
        }
      ],
      "name": "allowance",
      "outputs": [
        {
          "internalType": "uint256",
          "name": "",
          "type": "uint256"
        }
      ],
      "stateMutability": "view",
      "type": "function"
    },
    {
      "inputs": [
        {
          "internalType": "address",
          "name": "_spender",
          "type": "address"
        },
        {
          "internalType": "uint256",
          "name": "_value",
          "type": "uint256"
        }
      ],
      "name": "approve",
      "outputs": [
        {
          "internalType": "bool",
          "name": "",
          "type": "bool"
        }
      ],
      "stateMutability": "nonpayable",
      "type": "function"
    },
    {
      "inputs": [
        {
          "internalType": "address",
          "name": "_owner",
          "type": "address"
        }
      ],
      "name": "balanceOf",
      "outputs": [
        {
          "internalType": "uint256",
          "name": "",
          "type": "uint256"
        }
      ],
      "stateMutability": "view",
      "type": "function"
    },
    {
      "inputs": [
        {
          "internalType": "uint256",
          "name": "_value",
          "type": "uint256"
        }
      ],
      "name": "burn",
      "outputs": [],
      "stateMutability": "nonpayable",
      "type": "function"
    },
    {
      "inputs": [],
      "name": "decimals",
      "outputs": [
        {
          "internalType": "uint8",
          "name": "",
          "type": "uint8"
        }
      ],
      "stateMutability": "view",
      "type": "function"
    },
    {
      "inputs": [
        {
          "internalType": "uint256",
          "name": "_value",
          "type": "uint256"
        }
      ],
      "name": "mint",
      "outputs": [],
      "stateMutability": "nonpayable",
      "type": "function"
    },
    {
      "inputs": [],
      "name": "name",
      "outputs": [
        {
          "internalType": "string",
          "name": "",
          "type": "string"
        }
      ],
      "stateMutability": "view",
      "type": "function"
    },
    {
      "inputs": [],
      "name": "owner",
      "outputs": [
        {
          "internalType": "address",
          "name": "",
          "type": "address"
        }
      ],
      "stateMutability": "view",
      "type": "function"
    },
    {
      "inputs": [
        {
          "internalType": "bytes4",
          "name": "interfaceID",
          "type": "bytes4"
        }
      ],
      "name": "supportsInterface",
      "outputs": [
        {
          "internalType": "bool",
          "name": "",
          "type": "bool"
        }
      ],
      "stateMutability": "pure",
      "type": "function"
    },
    {
      "inputs": [],
      "name": "symbol",
      "outputs": [
        {
          "internalType": "string",
          "name": "",
          "type": "string"
        }
      ],
      "stateMutability": "view",
      "type": "function"
    },
    {
      "inputs": [],
      "name": "totalSupply",
      "outputs": [
        {
          "internalType": "uint256",
          "name": "",
          "type": "uint256"
        }
      ],
      "stateMutability": "view",
      "type": "function"
    },
    {
      "inputs": [
        {
          "internalType": "address",
          "name": "_to",
          "type": "address"
        },
        {
          "internalType": "uint256",
          "name": "_value",
          "type": "uint256"
        }
      ],
      "name": "transfer",
      "outputs": [
        {
          "internalType": "bool",
          "name": "",
          "type": "bool"
        }
      ],
      "stateMutability": "nonpayable",
      "type": "function"
    },
    {
      "inputs": [
        {
          "internalType": "address",
          "name": "_from",
          "type": "address"
        },
        {
          "internalType": "address",
          "name": "_to",
          "type": "address"
        },
        {
          "internalType": "uint256",
          "name": "_value",
          "type": "uint256"
        }
      ],
      "name": "transferFrom",
      "outputs": [
        {
          "internalType": "bool",
          "name": "",
          "type": "bool"
        }
      ],
      "stateMutability": "nonpayable",
      "type": "function"
    }
  ],
  "bytecode": "0x608060405234801561001057600080fd5b50604051610cb5380380610cb583398101604081905261002f91610187565b600080546001600160a01b03191633179055600161004d8582610299565b50600261005a8482610299565b506003805460ff191660ff84161790556004819055600080546001600160a01b03908116825260056020908152604080842085905583549051858152921692917fddf252ad1be2c89b69c2b068fc378daa952ba7f163c4a11628f55a4df523b3ef910160405180910390a350505050610357565b634e487b7160e01b600052604160045260246000fd5b600082601f8301126100f557600080fd5b81516001600160401b0381111561010e5761010e6100ce565b604051601f8201601f19908116603f011681016001600160401b038111828210171561013c5761013c6100ce565b60405281815283820160200185101561015457600080fd5b60005b8281101561017357602081860181015183830182015201610157565b506000918101602001919091529392505050565b6000806000806080858703121561019d57600080fd5b84516001600160401b038111156101b357600080fd5b6101bf878288016100e4565b602087015190955090506001600160401b038111156101dd57600080fd5b6101e9878288016100e4565b935050604085015160ff8116811461020057600080fd5b6060959095015193969295505050565b600181811c9082168061022457607f821691505b60208210810361024457634e487b7160e01b600052602260045260246000fd5b50919050565b601f82111561029457806000526020600020601f840160051c810160208510156102715750805b601f840160051c820191505b81811015610291576000815560010161027d565b50505b505050565b81516001600160401b038111156102b2576102b26100ce565b6102c6816102c08454610210565b8461024a565b6020601f8211600181146102fa57600083156102e25750848201515b600019600385901b1c1916600184901b178455610291565b600084815260208120601f198516915b8281101561032a578785015182556020948501946001909201910161030a565b50848210156103485786840151600019600387901b60f8161c191681555b50505050600190811b01905550565b61094f806103666000396000f3fe608060405234801561001057600080fd5b50600436106100cf5760003560e01c806342966c681161008c57806395d89b411161006657806395d89b41146101d6578063a0712d68146101de578063a9059cbb146101f1578063dd62ed3e1461020457600080fd5b806342966c681461016d57806370a08231146101825780638da5cb5b146101ab57600080fd5b806301ffc9a7146100d457806306fdde03146100fc578063095ea7b31461011157806318160ddd1461012457806323b872dd1461013b578063313ce5671461014e575b600080fd5b6100e76100e236600461071a565b610217565b60405190151581526020015b60405180910390f35b610104610249565b6040516100f3919061074b565b6100e761011f3660046107b5565b6102d7565b61012d60045481565b6040519081526020016100f3565b6100e76101493660046107df565b610392565b60035461015b9060ff1681565b60405160ff90911681526020016100f3565b61018061017b36600461081c565b6104f0565b005b61012d610190366004610835565b6001600160a01b031660009081526005602052604090205490565b6000546101be906001600160a01b031681565b6040516001600160a01b0390911681526020016100f3565b6101046105c6565b6101806101ec36600461081c565b6105d3565b6100e76101ff3660046107b5565b610685565b61012d610212366004610850565b6106ed565b60006001600160e01b031982166301ffc9a760e01b8114906336372b0760e01b1481806102415750805b949350505050565b6001805461025690610883565b80601f016020809104026020016040519081016040528092919081815260200182805461028290610883565b80156102cf5780601f106102a4576101008083540402835291602001916102cf565b820191906000526020600020905b8154815290600101906020018083116102b257829003601f168201915b505050505081565b3360008181526005602052604081205490919083908111610371573360008181526006602090815260408083206001600160a01b038a16808552908352818420899055848452600783529281902080546001600160a01b03191684179055518781529192917f8c5be1e5ebec7d5bd14f71427d1e84f3dd0314c0f7b2291e5b200ac8c7c3b92591015b60405180910390a36001925061038a565b604051636e1e214360e01b815260040160405180910390fd5b505092915050565b6000836001600160a01b0381163314806103c557506001600160a01b038181166000908152600760205260409020541633145b156104cf576001600160a01b038516600090815260056020526040902054859084908111610371576001600160a01b038716331461046c576001600160a01b038716600090815260066020908152604080832033845290915290205485111561044157604051637cde932d60e11b815260040160405180910390fd5b6001600160a01b03871660009081526006602090815260408083203384529091529020805486900390555b6001600160a01b0380881660008181526005602052604080822080548a900390559289168082529083902080548901905591516000805160206108fa833981519152906104bc9089815260200190565b60405180910390a36001935050506104e8565b604051631d15ba0160e31b815260040160405180910390fd5b509392505050565b6000546001600160a01b03163381148061052357506001600160a01b038181166000908152600760205260409020541633145b156104cf57600080546001600160a01b031680825260056020526040909120548390811161037157836004600082825461055d91906108d3565b9091555050600080546001600160a01b03168152600560205260408120805486929061058a9084906108d3565b9091555050600080546040518681526001600160a01b03909116906000805160206108fa8339815191529060200160405180910390a350505050565b6002805461025690610883565b6000546001600160a01b03163381148061060657506001600160a01b038181166000908152600760205260409020541633145b156104cf57816004600082825461061d91906108e6565b9091555050600080546001600160a01b03168152600560205260408120805484929061064a9084906108e6565b9091555050600080546040518481526001600160a01b0390911691906000805160206108fa8339815191529060200160405180910390a35050565b336000818152600560205260408120549091908390811161037157336000818152600560209081526040808320805489900390556001600160a01b03891680845292819020805489019055518781529192916000805160206108fa8339815191529101610360565b6001600160a01b038083166000908152600660209081526040808320938516835292905220545b92915050565b60006020828403121561072c57600080fd5b81356001600160e01b03198116811461074457600080fd5b9392505050565b602081526000825180602084015260005b81811015610779576020818601810151604086840101520161075c565b506000604082850101526040601f19601f83011684010191505092915050565b80356001600160a01b03811681146107b057600080fd5b919050565b600080604083850312156107c857600080fd5b6107d183610799565b946020939093013593505050565b6000806000606084860312156107f457600080fd5b6107fd84610799565b925061080b60208501610799565b929592945050506040919091013590565b60006020828403121561082e57600080fd5b5035919050565b60006020828403121561084757600080fd5b61074482610799565b6000806040838503121561086357600080fd5b61086c83610799565b915061087a60208401610799565b90509250929050565b600181811c9082168061089757607f821691505b6020821081036108b757634e487b7160e01b600052602260045260246000fd5b50919050565b634e487b7160e01b600052601160045260246000fd5b81810381811115610714576107146108bd565b80820180821115610714576107146108bd56feddf252ad1be2c89b69c2b068fc378daa952ba7f163c4a11628f55a4df523b3efa26469706673582212202e26b5e237e861c566875a599ac692da186f56290ec08aaf25e0c58f7b6e359964736f6c634300081c0033",
  "linkReferences": {},
  "deployedLinkReferences": {}
}