{
  "_format": "hh-sol-artifact-1",
  "contractName": "ERC20",
  "sourceName": "contracts/ERC20.sol",
  "abi": [
    {
      "inputs": [
        {
          "internalType": "string",
          "name": "tokenName",
          "type": "string"
        },
        {
          "internalType": "string",
          "name": "tokenSymbol",
          "type": "string"
        },
        {
          "internalType": "uint8",
          "name": "unitDecimals",
          "type": "uint8"
        }
      ],
      "stateMutability": "nonpayable",
      "type": "constructor"
    },
    {
      "inputs": [
        {
          "internalType": "address",
          "name": "_spender",
          "type": "address"
        },
        {
          "internalType": "uint256",
          "name": "_allowance",
          "type": "uint256"
        },
        {
          "internalType": "uint256",
          "name": "_needed",
          "type": "uint256"
        }
      ],
      "name": "InsufficientAllowance",
      "type": "error"
    },
    {
      "inputs": [
        {
          "internalType": "address",
          "name": "_sender",
          "type": "address"
        },
        {
          "internalType": "uint256",
          "name": "_balance",
          "type": "uint256"
        },
        {
          "internalType": "uint256",
          "name": "_needed",
          "type": "uint256"
        }
      ],
      "name": "InsufficientBalance",
      "type": "error"
    },
    {
      "inputs": [
        {
          "internalType": "address",
          "name": "_approver",
          "type": "address"
        }
      ],
      "name": "InvalidApprover",
      "type": "error"
    },
    {
      "inputs": [
        {
          "internalType": "address",
          "name": "_receiver",
          "type": "address"
        }
      ],
      "name": "InvalidReceiver",
      "type": "error"
    },
    {
      "inputs": [
        {
          "internalType": "address",
          "name": "_sender",
          "type": "address"
        }
      ],
      "name": "InvalidSender",
      "type": "error"
    },
    {
      "inputs": [
        {
          "internalType": "address",
          "name": "_spender",
          "type": "address"
        }
      ],
      "name": "InvalidSpender",
      "type": "error"
    },
    {
      "inputs": [
        {
          "internalType": "address",
          "name": "_owner",
          "type": "address"
        },
        {
          "internalType": "address",
          "name": "_sender",
          "type": "address"
        }
      ],
      "name": "OnlyOwner",
      "type": "error"
    },
    {
      "inputs": [
        {
          "internalType": "address",
          "name": "_pendingOwner",
          "type": "address"
        },
        {
          "internalType": "address",
          "name": "_yourAddress",
          "type": "address"
        }
      ],
      "name": "OnlyPendingPwner",
      "type": "error"
    },
    {
      "inputs": [
        {
          "internalType": "address",
          "name": "_setAddr",
          "type": "address"
        }
      ],
      "name": "ZerpPendingOwner",
      "type": "error"
    },
    {
      "anonymous": false,
      "inputs": [
        {
          "indexed": true,
          "internalType": "address",
          "name": "owner",
          "type": "address"
        },
        {
          "indexed": true,
          "internalType": "address",
          "name": "spender",
          "type": "address"
        },
        {
          "indexed": false,
          "internalType": "uint256",
          "name": "value",
          "type": "uint256"
        }
      ],
      "name": "Approval",
      "type": "event"
    },
    {
      "anonymous": false,
      "inputs": [
        {
          "indexed": false,
          "internalType": "uint256",
          "name": "_burnValue",
          "type": "uint256"
        },
        {
          "indexed": false,
          "internalType": "uint256",
          "name": "_supplyValue",
          "type": "uint256"
        }
      ],
      "name": "Burn",
      "type": "event"
    },
    {
      "anonymous": false,
      "inputs": [
        {
          "indexed": false,
          "internalType": "uint256",
          "name": "_mintValue",
          "type": "uint256"
        },
        {
          "indexed": false,
          "internalType": "uint256",
          "name": "_supplyValue",
          "type": "uint256"
        }
      ],
      "name": "Mint",
      "type": "event"
    },
    {
      "anonymous": false,
      "inputs": [
        {
          "indexed": false,
          "internalType": "address",
          "name": "_pendingOwner",
          "type": "address"
        }
      ],
      "name": "NewPendingOwnerSet",
      "type": "event"
    },
    {
      "anonymous": false,
      "inputs": [
        {
          "indexed": false,
          "internalType": "address",
          "name": "_newOwner",
          "type": "address"
        },
        {
          "indexed": false,
          "internalType": "address",
          "name": "_pendingOwner",
          "type": "address"
        }
      ],
      "name": "OwnerChanged",
      "type": "event"
    },
    {
      "anonymous": false,
      "inputs": [
        {
          "indexed": true,
          "internalType": "address",
          "name": "from",
          "type": "address"
        },
        {
          "indexed": true,
          "internalType": "address",
          "name": "to",
          "type": "address"
        },
        {
          "indexed": false,
          "internalType": "uint256",
          "name": "value",
          "type": "uint256"
        }
      ],
      "name": "Transfer",
      "type": "event"
    },
    {
      "inputs": [
        {
          "internalType": "address",
          "name": "_owner",
          "type": "address"
        },
        {
          "internalType": "address",
          "name": "_spender",
          "type": "address"
        }
      ],
      "name": "allowance",
      "outputs": [
        {
          "internalType": "uint256",
          "name": "",
          "type": "uint256"
        }
      ],
      "stateMutability": "view",
      "type": "function"
    },
    {
      "inputs": [
        {
          "internalType": "address",
          "name": "_spender",
          "type": "address"
        },
        {
          "internalType": "uint256",
          "name": "_value",
          "type": "uint256"
        }
      ],
      "name": "approve",
      "outputs": [
        {
          "internalType": "bool",
          "name": "",
          "type": "bool"
        }
      ],
      "stateMutability": "nonpayable",
      "type": "function"
    },
    {
      "inputs": [
        {
          "internalType": "address",
          "name": "_owner",
          "type": "address"
        }
      ],
      "name": "balanceOf",
      "outputs": [
        {
          "internalType": "uint256",
          "name": "",
          "type": "uint256"
        }
      ],
      "stateMutability": "view",
      "type": "function"
    },
    {
      "inputs": [
        {
          "internalType": "uint256",
          "name": "_value",
          "type": "uint256"
        }
      ],
      "name": "burn",
      "outputs": [],
      "stateMutability": "nonpayable",
      "type": "function"
    },
    {
      "inputs": [],
      "name": "changeOwner",
      "outputs": [],
      "stateMutability": "nonpayable",
      "type": "function"
    },
    {
      "inputs": [],
      "name": "decimals",
      "outputs": [
        {
          "internalType": "uint8",
          "name": "",
          "type": "uint8"
        }
      ],
      "stateMutability": "view",
      "type": "function"
    },
    {
      "inputs": [
        {
          "internalType": "address",
          "name": "_to",
          "type": "address"
        },
        {
          "internalType": "uint256",
          "name": "_value",
          "type": "uint256"
        }
      ],
      "name": "mint",
      "outputs": [],
      "stateMutability": "nonpayable",
      "type": "function"
    },
    {
      "inputs": [],
      "name": "name",
      "outputs": [
        {
          "internalType": "string",
          "name": "",
          "type": "string"
        }
      ],
      "stateMutability": "view",
      "type": "function"
    },
    {
      "inputs": [],
      "name": "owner",
      "outputs": [
        {
          "internalType": "address",
          "name": "",
          "type": "address"
        }
      ],
      "stateMutability": "view",
      "type": "function"
    },
    {
      "inputs": [],
      "name": "pendingOwner",
      "outputs": [
        {
          "internalType": "address",
          "name": "",
          "type": "address"
        }
      ],
      "stateMutability": "view",
      "type": "function"
    },
    {
      "inputs": [
        {
          "internalType": "address",
          "name": "_pendingOwner",
          "type": "address"
        }
      ],
      "name": "setPendingOwner",
      "outputs": [],
      "stateMutability": "nonpayable",
      "type": "function"
    },
    {
      "inputs": [
        {
          "internalType": "bytes4",
          "name": "interfaceID",
          "type": "bytes4"
        }
      ],
      "name": "supportsInterface",
      "outputs": [
        {
          "internalType": "bool",
          "name": "",
          "type": "bool"
        }
      ],
      "stateMutability": "pure",
      "type": "function"
    },
    {
      "inputs": [],
      "name": "symbol",
      "outputs": [
        {
          "internalType": "string",
          "name": "",
          "type": "string"
        }
      ],
      "stateMutability": "view",
      "type": "function"
    },
    {
      "inputs": [],
      "name": "totalSupply",
      "outputs": [
        {
          "internalType": "uint256",
          "name": "",
          "type": "uint256"
        }
      ],
      "stateMutability": "view",
      "type": "function"
    },
    {
      "inputs": [
        {
          "internalType": "address",
          "name": "_to",
          "type": "address"
        },
        {
          "internalType": "uint256",
          "name": "_value",
          "type": "uint256"
        }
      ],
      "name": "transfer",
      "outputs": [
        {
          "internalType": "bool",
          "name": "",
          "type": "bool"
        }
      ],
      "stateMutability": "nonpayable",
      "type": "function"
    },
    {
      "inputs": [
        {
          "internalType": "address",
          "name": "_from",
          "type": "address"
        },
        {
          "internalType": "address",
          "name": "_to",
          "type": "address"
        },
        {
          "internalType": "uint256",
          "name": "_value",
          "type": "uint256"
        }
      ],
      "name": "transferFrom",
      "outputs": [
        {
          "internalType": "bool",
          "name": "",
          "type": "bool"
        }
      ],
      "stateMutability": "nonpayable",
      "type": "function"
    }
  ],
  "bytecode": "0x608060405234801561001057600080fd5b5060405161101538038061101583398101604081905261002f91610130565b600080546001600160a01b03191633179055600261004d848261023c565b50600361005a838261023c565b506004805460ff191660ff92909216919091179055506102fa9050565b634e487b7160e01b600052604160045260246000fd5b600082601f83011261009e57600080fd5b81516001600160401b038111156100b7576100b7610077565b604051601f8201601f19908116603f011681016001600160401b03811182821017156100e5576100e5610077565b6040528181528382016020018510156100fd57600080fd5b60005b8281101561011c57602081860181015183830182015201610100565b506000918101602001919091529392505050565b60008060006060848603121561014557600080fd5b83516001600160401b0381111561015b57600080fd5b6101678682870161008d565b602086015190945090506001600160401b0381111561018557600080fd5b6101918682870161008d565b925050604084015160ff811681146101a857600080fd5b809150509250925092565b600181811c908216806101c757607f821691505b6020821081036101e757634e487b7160e01b600052602260045260246000fd5b50919050565b601f82111561023757806000526020600020601f840160051c810160208510156102145750805b601f840160051c820191505b818110156102345760008155600101610220565b50505b505050565b81516001600160401b0381111561025557610255610077565b6102698161026384546101b3565b846101ed565b6020601f82116001811461029d57600083156102855750848201515b600019600385901b1c1916600184901b178455610234565b600084815260208120601f198516915b828110156102cd57878501518255602094850194600190920191016102ad565b50848210156102eb5786840151600019600387901b60f8161c191681555b50505050600190811b01905550565b610d0c806103096000396000f3fe608060405234801561001057600080fd5b50600436106101005760003560e01c806362a0947711610097578063a9059cbb11610066578063a9059cbb1461021b578063c42069ec1461022e578063dd62ed3e14610241578063e30c39781461025457600080fd5b806362a09477146101b757806370a08231146101bf5780638da5cb5b146101e857806395d89b411461021357600080fd5b806323b872dd116100d357806323b872dd14610167578063313ce5671461017a57806340c10f191461018f57806342966c68146101a457600080fd5b806301ffc9a71461010557806306fdde031461012d578063095ea7b31461014257806318160ddd14610155575b600080fd5b610118610113366004610ade565b610267565b60405190151581526020015b60405180910390f35b610135610299565b6040516101249190610b08565b610118610150366004610b72565b61032b565b6005545b604051908152602001610124565b610118610175366004610b9c565b610474565b60045460405160ff9091168152602001610124565b6101a261019d366004610b72565b61064d565b005b6101a26101b2366004610bd9565b610789565b6101a2610899565b6101596101cd366004610bf2565b6001600160a01b031660009081526006602052604090205490565b6000546101fb906001600160a01b031681565b6040516001600160a01b039091168152602001610124565b610135610941565b610118610229366004610b72565b610950565b6101a261023c366004610bf2565b610a15565b61015961024f366004610c0d565b610ab1565b6001546101fb906001600160a01b031681565b60006001600160e01b031982166301ffc9a760e01b8114906336372b0760e01b1481806102915750805b949350505050565b6060600280546102a890610c40565b80601f01602080910402602001604051908101604052809291908181526020018280546102d490610c40565b80156103215780601f106102f657610100808354040283529160200191610321565b820191906000526020600020905b81548152906001019060200180831161030457829003601f168201915b5050505050905090565b6000338061035c576040516322f051b160e21b81526001600160a01b03821660048201526024015b60405180910390fd5b836001600160a01b03811661038f5760405163270af7ed60e11b81526001600160a01b0382166004820152602401610353565b33600081815260066020526040902054859190828110610428573360008181526007602090815260408083206001600160a01b038d168085529083528184208c9055848452600883529281902080546001600160a01b03191684179055518a815283917f8c5be1e5ebec7d5bd14f71427d1e84f3dd0314c0f7b2291e5b200ac8c7c3b92591015b60405180910390a36001965050610469565b60006104348285610c90565b60405163db42144d60e01b81526001600160a01b03851660048201526024810184905260448101829052909150606401610353565b505050505092915050565b60006001600160a01b03841615610622576001600160a01b038316156105fe576001600160a01b038416600090815260066020908152604080832054600783528184203380865293529083205491929091908583106105bf57836001600160a01b0316886001600160a01b03161461055a578582101561052d576104f88287610c90565b604051630c95cf2760e11b81526001600160a01b03861660048201526024810184905260448101829052909150606401610353565b6001600160a01b038089166000908152600760209081526040808320938816835292905220805487900390555b6001600160a01b0380891660008181526006602052604080822080548b90039055928a168082529083902080548a0190559151600080516020610cb7833981519152906105aa908a815260200190565b60405180910390a36001945050505050610646565b6105c98387610c90565b60405163db42144d60e01b81526001600160a01b03861660048201526024810185905260448101829052909150606401610353565b604051639cfea58360e01b81526001600160a01b0384166004820152602401610353565b6040516313053d9360e21b81526001600160a01b0385166004820152602401610353565b9392505050565b60005433906001600160a01b0316810361075957826001600160a01b03811661069457604051639cfea58360e01b81526001600160a01b0382166004820152602401610353565b82600560008282546106a69190610ca3565b90915550506001600160a01b038416600090815260066020526040812080548592906106d3908490610ca3565b90915550506005546040805185815260208101929092527fcc9c58b575eabd3f6a1ee653e91fcea3ff546867ffc3782a3bbca1f9b6dbb8df910160405180910390a1836001600160a01b031660006001600160a01b0316600080516020610cb783398151915260055460405161074b91815260200190565b60405180910390a350505050565b60005460405163a3ee740f60e01b81526001600160a01b0391821660048201529082166024820152604401610353565b33806107b3576040516313053d9360e21b81526001600160a01b0382166004820152602401610353565b3360008181526006602052604090205483919082811061042857600033905085600560008282546107e49190610c90565b90915550506001600160a01b03811660009081526006602052604081208054889290610811908490610c90565b90915550506005546040805188815260208101929092527f410c5c259085cde81fedf70c1aa308ec839373c26e9b7ada6560a2aca0254eb6910160405180910390a160006001600160a01b0316816001600160a01b0316600080516020610cb783398151915260055460405161088991815260200190565b60405180910390a3505050505050565b60015433906001600160a01b031681036109115760018054600080546001600160a01b0383166001600160a01b03199182168117835592169092556040805191825260208201929092527fb532073b38c83145e3e5135377a08bf9aab55bc0fd7c1179cd4fb995d2a5159c910160405180910390a150565b60015460405163176f517960e01b81526001600160a01b0391821660048201529082166024820152604401610353565b6060600380546102a890610c40565b6000338061097c576040516313053d9360e21b81526001600160a01b0382166004820152602401610353565b836001600160a01b0381166109af57604051639cfea58360e01b81526001600160a01b0382166004820152602401610353565b336000818152600660205260409020548591908281106104285733600081815260066020908152604080832080548c900390556001600160a01b038c168084529281902080548c019055518a81528391600080516020610cb78339815191529101610416565b60005433906001600160a01b03168103610759576001600160a01b03821615610a8d57600180546001600160a01b0319166001600160a01b0384169081179091556040519081527f7d5f578daab924f3f271d863dd8729e6970e9186812579e22f892146def80f679060200160405180910390a15050565b604051633484b10360e11b81526001600160a01b0383166004820152602401610353565b6001600160a01b038083166000908152600760209081526040808320938516835292905220545b92915050565b600060208284031215610af057600080fd5b81356001600160e01b03198116811461064657600080fd5b602081526000825180602084015260005b81811015610b365760208186018101516040868401015201610b19565b506000604082850101526040601f19601f83011684010191505092915050565b80356001600160a01b0381168114610b6d57600080fd5b919050565b60008060408385031215610b8557600080fd5b610b8e83610b56565b946020939093013593505050565b600080600060608486031215610bb157600080fd5b610bba84610b56565b9250610bc860208501610b56565b929592945050506040919091013590565b600060208284031215610beb57600080fd5b5035919050565b600060208284031215610c0457600080fd5b61064682610b56565b60008060408385031215610c2057600080fd5b610c2983610b56565b9150610c3760208401610b56565b90509250929050565b600181811c90821680610c5457607f821691505b602082108103610c7457634e487b7160e01b600052602260045260246000fd5b50919050565b634e487b7160e01b600052601160045260246000fd5b81810381811115610ad857610ad8610c7a565b80820180821115610ad857610ad8610c7a56feddf252ad1be2c89b69c2b068fc378daa952ba7f163c4a11628f55a4df523b3efa2646970667358221220f9fe0bdf5668872bc0ee823cb7a4f999d2a67cebb264e3e0bd665e4341d1bdce64736f6c634300081c0033",
  "linkReferences": {},
  "deployedLinkReferences": {}
}