{
  "_format": "hh-sol-artifact-1",
  "contractName": "ERC20",
  "sourceName": "contracts/erc20.sol",
  "abi": [
    {
      "inputs": [
        {
          "internalType": "bytes",
          "name": "tokenName",
          "type": "bytes"
        },
        {
          "internalType": "bytes",
          "name": "tokenSymbol",
          "type": "bytes"
        },
        {
          "internalType": "uint8",
          "name": "unitDecimals",
          "type": "uint8"
        },
        {
          "internalType": "uint256",
          "name": "totalSupplyAmount",
          "type": "uint256"
        }
      ],
      "stateMutability": "nonpayable",
      "type": "constructor"
    },
    {
      "anonymous": false,
      "inputs": [
        {
          "indexed": true,
          "internalType": "address",
          "name": "_owner",
          "type": "address"
        },
        {
          "indexed": true,
          "internalType": "address",
          "name": "_spender",
          "type": "address"
        },
        {
          "indexed": false,
          "internalType": "uint256",
          "name": "_value",
          "type": "uint256"
        }
      ],
      "name": "Approval",
      "type": "event"
    },
    {
      "anonymous": false,
      "inputs": [
        {
          "indexed": true,
          "internalType": "address",
          "name": "_from",
          "type": "address"
        },
        {
          "indexed": true,
          "internalType": "address",
          "name": "_to",
          "type": "address"
        },
        {
          "indexed": false,
          "internalType": "uint256",
          "name": "_value",
          "type": "uint256"
        }
      ],
      "name": "Transfer",
      "type": "event"
    },
    {
      "inputs": [
        {
          "internalType": "address",
          "name": "_owner",
          "type": "address"
        },
        {
          "internalType": "address",
          "name": "_spender",
          "type": "address"
        }
      ],
      "name": "allowance",
      "outputs": [
        {
          "internalType": "uint256",
          "name": "",
          "type": "uint256"
        }
      ],
      "stateMutability": "view",
      "type": "function"
    },
    {
      "inputs": [
        {
          "internalType": "address",
          "name": "_spender",
          "type": "address"
        },
        {
          "internalType": "uint256",
          "name": "_value",
          "type": "uint256"
        }
      ],
      "name": "approve",
      "outputs": [
        {
          "internalType": "bool",
          "name": "",
          "type": "bool"
        }
      ],
      "stateMutability": "nonpayable",
      "type": "function"
    },
    {
      "inputs": [
        {
          "internalType": "address",
          "name": "_owner",
          "type": "address"
        }
      ],
      "name": "balanceOf",
      "outputs": [
        {
          "internalType": "uint256",
          "name": "",
          "type": "uint256"
        }
      ],
      "stateMutability": "view",
      "type": "function"
    },
    {
      "inputs": [],
      "name": "decimals",
      "outputs": [
        {
          "internalType": "uint8",
          "name": "",
          "type": "uint8"
        }
      ],
      "stateMutability": "view",
      "type": "function"
    },
    {
      "inputs": [],
      "name": "name",
      "outputs": [
        {
          "internalType": "bytes",
          "name": "",
          "type": "bytes"
        }
      ],
      "stateMutability": "view",
      "type": "function"
    },
    {
      "inputs": [],
      "name": "owner",
      "outputs": [
        {
          "internalType": "address",
          "name": "",
          "type": "address"
        }
      ],
      "stateMutability": "view",
      "type": "function"
    },
    {
      "inputs": [],
      "name": "symbol",
      "outputs": [
        {
          "internalType": "bytes",
          "name": "",
          "type": "bytes"
        }
      ],
      "stateMutability": "view",
      "type": "function"
    },
    {
      "inputs": [],
      "name": "totalSupply",
      "outputs": [
        {
          "internalType": "uint256",
          "name": "",
          "type": "uint256"
        }
      ],
      "stateMutability": "view",
      "type": "function"
    },
    {
      "inputs": [
        {
          "internalType": "address",
          "name": "_to",
          "type": "address"
        },
        {
          "internalType": "uint256",
          "name": "_value",
          "type": "uint256"
        }
      ],
      "name": "transfer",
      "outputs": [
        {
          "internalType": "bool",
          "name": "",
          "type": "bool"
        }
      ],
      "stateMutability": "nonpayable",
      "type": "function"
    },
    {
      "inputs": [
        {
          "internalType": "address",
          "name": "_from",
          "type": "address"
        },
        {
          "internalType": "address",
          "name": "_to",
          "type": "address"
        },
        {
          "internalType": "uint256",
          "name": "_value",
          "type": "uint256"
        }
      ],
      "name": "transferFrom",
      "outputs": [
        {
          "internalType": "bool",
          "name": "",
          "type": "bool"
        }
      ],
      "stateMutability": "nonpayable",
      "type": "function"
    }
  ],
  "bytecode": "0x60806040523480156200001157600080fd5b50604051620018a9380380620018a9833981810160405281019062000037919062000316565b336000806101000a81548173ffffffffffffffffffffffffffffffffffffffff021916908373ffffffffffffffffffffffffffffffffffffffff16021790555083600190805190602001906200008f929190620001c6565b508260029080519060200190620000a8929190620001c6565b5081600360006101000a81548160ff021916908360ff16021790555080600481905550600454600560008060009054906101000a900473ffffffffffffffffffffffffffffffffffffffff1673ffffffffffffffffffffffffffffffffffffffff1673ffffffffffffffffffffffffffffffffffffffff1681526020019081526020016000208190555060008054906101000a900473ffffffffffffffffffffffffffffffffffffffff1673ffffffffffffffffffffffffffffffffffffffff16600073ffffffffffffffffffffffffffffffffffffffff167fddf252ad1be2c89b69c2b068fc378daa952ba7f163c4a11628f55a4df523b3ef600454604051620001b49190620003c5565b60405180910390a3505050506200055e565b828054620001d49062000496565b90600052602060002090601f016020900481019282620001f8576000855562000244565b82601f106200021357805160ff191683800117855562000244565b8280016001018555821562000244579182015b828111156200024357825182559160200191906001019062000226565b5b50905062000253919062000257565b5090565b5b808211156200027257600081600090555060010162000258565b5090565b60006200028d620002878462000416565b620003e2565b905082815260208101848484011115620002a657600080fd5b620002b384828562000460565b509392505050565b600082601f830112620002cd57600080fd5b8151620002df84826020860162000276565b91505092915050565b600081519050620002f9816200052a565b92915050565b600081519050620003108162000544565b92915050565b600080600080608085870312156200032d57600080fd5b600085015167ffffffffffffffff8111156200034857600080fd5b6200035687828801620002bb565b945050602085015167ffffffffffffffff8111156200037457600080fd5b6200038287828801620002bb565b93505060406200039587828801620002ff565b9250506060620003a887828801620002e8565b91505092959194509250565b620003bf8162000449565b82525050565b6000602082019050620003dc6000830184620003b4565b92915050565b6000604051905081810181811067ffffffffffffffff821117156200040c576200040b620004fb565b5b8060405250919050565b600067ffffffffffffffff821115620004345762000433620004fb565b5b601f19601f8301169050602081019050919050565b6000819050919050565b600060ff82169050919050565b60005b838110156200048057808201518184015260208101905062000463565b8381111562000490576000848401525b50505050565b60006002820490506001821680620004af57607f821691505b60208210811415620004c657620004c5620004cc565b5b50919050565b7f4e487b7100000000000000000000000000000000000000000000000000000000600052602260045260246000fd5b7f4e487b7100000000000000000000000000000000000000000000000000000000600052604160045260246000fd5b620005358162000449565b81146200054157600080fd5b50565b6200054f8162000453565b81146200055b57600080fd5b50565b61133b806200056e6000396000f3fe608060405234801561001057600080fd5b506004361061009e5760003560e01c806370a082311161006657806370a082311461015d5780638da5cb5b1461018d57806395d89b41146101ab578063a9059cbb146101c9578063dd62ed3e146101f95761009e565b806306fdde03146100a3578063095ea7b3146100c157806318160ddd146100f157806323b872dd1461010f578063313ce5671461013f575b600080fd5b6100ab610229565b6040516100b891906110f8565b60405180910390f35b6100db60048036038101906100d69190610f51565b6102b7565b6040516100e891906110dd565b60405180910390f35b6100f96104ad565b604051610106919061117a565b60405180910390f35b61012960048036038101906101249190610f02565b6104b3565b60405161013691906110dd565b60405180910390f35b6101476108c7565b6040516101549190611195565b60405180910390f35b61017760048036038101906101729190610e9d565b6108da565b604051610184919061117a565b60405180910390f35b610195610923565b6040516101a291906110c2565b60405180910390f35b6101b3610947565b6040516101c091906110f8565b60405180910390f35b6101e360048036038101906101de9190610f51565b6109d5565b6040516101f091906110dd565b60405180910390f35b610213600480360381019061020e9190610ec6565b610dec565b604051610220919061117a565b60405180910390f35b6001805461023690611265565b80601f016020809104026020016040519081016040528092919081815260200182805461026290611265565b80156102af5780601f10610284576101008083540402835291602001916102af565b820191906000526020600020905b81548152906001019060200180831161029257829003601f168201915b505050505081565b6000338280600560008473ffffffffffffffffffffffffffffffffffffffff1673ffffffffffffffffffffffffffffffffffffffff16815260200190815260200160002054101561033d576040517f08c379a00000000000000000000000000000000000000000000000000000000081526004016103349061115a565b60405180910390fd5b83600660003373ffffffffffffffffffffffffffffffffffffffff1673ffffffffffffffffffffffffffffffffffffffff16815260200190815260200160002060008773ffffffffffffffffffffffffffffffffffffffff1673ffffffffffffffffffffffffffffffffffffffff1681526020019081526020016000208190555084600760003373ffffffffffffffffffffffffffffffffffffffff1673ffffffffffffffffffffffffffffffffffffffff16815260200190815260200160002060006101000a81548173ffffffffffffffffffffffffffffffffffffffff021916908373ffffffffffffffffffffffffffffffffffffffff1602179055508473ffffffffffffffffffffffffffffffffffffffff163373ffffffffffffffffffffffffffffffffffffffff167f8c5be1e5ebec7d5bd14f71427d1e84f3dd0314c0f7b2291e5b200ac8c7c3b92586604051610499919061117a565b60405180910390a360019250505092915050565b60045481565b6000833373ffffffffffffffffffffffffffffffffffffffff168173ffffffffffffffffffffffffffffffffffffffff16148061057a57503373ffffffffffffffffffffffffffffffffffffffff16600760008373ffffffffffffffffffffffffffffffffffffffff1673ffffffffffffffffffffffffffffffffffffffff16815260200190815260200160002060009054906101000a900473ffffffffffffffffffffffffffffffffffffffff1673ffffffffffffffffffffffffffffffffffffffff16145b6105b9576040517f08c379a00000000000000000000000000000000000000000000000000000000081526004016105b09061111a565b60405180910390fd5b848380600560008473ffffffffffffffffffffffffffffffffffffffff1673ffffffffffffffffffffffffffffffffffffffff16815260200190815260200160002054101561063d576040517f08c379a00000000000000000000000000000000000000000000000000000000081526004016106349061115a565b60405180910390fd5b3373ffffffffffffffffffffffffffffffffffffffff168773ffffffffffffffffffffffffffffffffffffffff16146107ba5784600660008973ffffffffffffffffffffffffffffffffffffffff1673ffffffffffffffffffffffffffffffffffffffff16815260200190815260200160002060003373ffffffffffffffffffffffffffffffffffffffff1673ffffffffffffffffffffffffffffffffffffffff16815260200190815260200160002054101561072f576040517f08c379a00000000000000000000000000000000000000000000000000000000081526004016107269061113a565b60405180910390fd5b84600660008973ffffffffffffffffffffffffffffffffffffffff1673ffffffffffffffffffffffffffffffffffffffff16815260200190815260200160002060003373ffffffffffffffffffffffffffffffffffffffff1673ffffffffffffffffffffffffffffffffffffffff168152602001908152602001600020600082825403925050819055505b84600560008973ffffffffffffffffffffffffffffffffffffffff1673ffffffffffffffffffffffffffffffffffffffff1681526020019081526020016000206000828254039250508190555084600560008873ffffffffffffffffffffffffffffffffffffffff1673ffffffffffffffffffffffffffffffffffffffff168152602001908152602001600020600082825401925050819055508573ffffffffffffffffffffffffffffffffffffffff168773ffffffffffffffffffffffffffffffffffffffff167fddf252ad1be2c89b69c2b068fc378daa952ba7f163c4a11628f55a4df523b3ef876040516108b1919061117a565b60405180910390a3600193505050509392505050565b600360009054906101000a900460ff1681565b6000600560008373ffffffffffffffffffffffffffffffffffffffff1673ffffffffffffffffffffffffffffffffffffffff168152602001908152602001600020549050919050565b60008054906101000a900473ffffffffffffffffffffffffffffffffffffffff1681565b6002805461095490611265565b80601f016020809104026020016040519081016040528092919081815260200182805461098090611265565b80156109cd5780601f106109a2576101008083540402835291602001916109cd565b820191906000526020600020905b8154815290600101906020018083116109b057829003601f168201915b505050505081565b60008060009054906101000a900473ffffffffffffffffffffffffffffffffffffffff163373ffffffffffffffffffffffffffffffffffffffff168173ffffffffffffffffffffffffffffffffffffffff161480610abd57503373ffffffffffffffffffffffffffffffffffffffff16600760008373ffffffffffffffffffffffffffffffffffffffff1673ffffffffffffffffffffffffffffffffffffffff16815260200190815260200160002060009054906101000a900473ffffffffffffffffffffffffffffffffffffffff1673ffffffffffffffffffffffffffffffffffffffff16145b610afc576040517f08c379a0000000000000000000000000000000000000000000000000000000008152600401610af39061111a565b60405180910390fd5b60008054906101000a900473ffffffffffffffffffffffffffffffffffffffff168380600560008473ffffffffffffffffffffffffffffffffffffffff1673ffffffffffffffffffffffffffffffffffffffff168152602001908152602001600020541015610ba0576040517f08c379a0000000000000000000000000000000000000000000000000000000008152600401610b979061115a565b60405180910390fd5b3373ffffffffffffffffffffffffffffffffffffffff1660008054906101000a900473ffffffffffffffffffffffffffffffffffffffff1673ffffffffffffffffffffffffffffffffffffffff1614610c9f5784600660008060009054906101000a900473ffffffffffffffffffffffffffffffffffffffff1673ffffffffffffffffffffffffffffffffffffffff1673ffffffffffffffffffffffffffffffffffffffff16815260200190815260200160002060003373ffffffffffffffffffffffffffffffffffffffff1673ffffffffffffffffffffffffffffffffffffffff168152602001908152602001600020600082825403925050819055505b84600560008060009054906101000a900473ffffffffffffffffffffffffffffffffffffffff1673ffffffffffffffffffffffffffffffffffffffff1673ffffffffffffffffffffffffffffffffffffffff1681526020019081526020016000206000828254039250508190555084600560008873ffffffffffffffffffffffffffffffffffffffff1673ffffffffffffffffffffffffffffffffffffffff168152602001908152602001600020600082825401925050819055508573ffffffffffffffffffffffffffffffffffffffff1660008054906101000a900473ffffffffffffffffffffffffffffffffffffffff1673ffffffffffffffffffffffffffffffffffffffff167fddf252ad1be2c89b69c2b068fc378daa952ba7f163c4a11628f55a4df523b3ef87604051610dd7919061117a565b60405180910390a36001935050505092915050565b6000600660008473ffffffffffffffffffffffffffffffffffffffff1673ffffffffffffffffffffffffffffffffffffffff16815260200190815260200160002060008373ffffffffffffffffffffffffffffffffffffffff1673ffffffffffffffffffffffffffffffffffffffff16815260200190815260200160002054905092915050565b600081359050610e82816112d7565b92915050565b600081359050610e97816112ee565b92915050565b600060208284031215610eaf57600080fd5b6000610ebd84828501610e73565b91505092915050565b60008060408385031215610ed957600080fd5b6000610ee785828601610e73565b9250506020610ef885828601610e73565b9150509250929050565b600080600060608486031215610f1757600080fd5b6000610f2586828701610e73565b9350506020610f3686828701610e73565b9250506040610f4786828701610e88565b9150509250925092565b60008060408385031215610f6457600080fd5b6000610f7285828601610e73565b9250506020610f8385828601610e88565b9150509250929050565b610f96816111dd565b82525050565b610fa5816111ef565b82525050565b6000610fb6826111b0565b610fc081856111bb565b9350610fd0818560208601611232565b610fd9816112c6565b840191505092915050565b6000610ff16002836111cc565b91507f30310000000000000000000000000000000000000000000000000000000000006000830152602082019050919050565b60006110316002836111cc565b91507f30330000000000000000000000000000000000000000000000000000000000006000830152602082019050919050565b60006110716002836111cc565b91507f30320000000000000000000000000000000000000000000000000000000000006000830152602082019050919050565b6110ad8161121b565b82525050565b6110bc81611225565b82525050565b60006020820190506110d76000830184610f8d565b92915050565b60006020820190506110f26000830184610f9c565b92915050565b600060208201905081810360008301526111128184610fab565b905092915050565b6000602082019050818103600083015261113381610fe4565b9050919050565b6000602082019050818103600083015261115381611024565b9050919050565b6000602082019050818103600083015261117381611064565b9050919050565b600060208201905061118f60008301846110a4565b92915050565b60006020820190506111aa60008301846110b3565b92915050565b600081519050919050565b600082825260208201905092915050565b600082825260208201905092915050565b60006111e8826111fb565b9050919050565b60008115159050919050565b600073ffffffffffffffffffffffffffffffffffffffff82169050919050565b6000819050919050565b600060ff82169050919050565b60005b83811015611250578082015181840152602081019050611235565b8381111561125f576000848401525b50505050565b6000600282049050600182168061127d57607f821691505b6020821081141561129157611290611297565b5b50919050565b7f4e487b7100000000000000000000000000000000000000000000000000000000600052602260045260246000fd5b6000601f19601f8301169050919050565b6112e0816111dd565b81146112eb57600080fd5b50565b6112f78161121b565b811461130257600080fd5b5056fea2646970667358221220c8cc38fb45025653d279cf35785f757faef29e241248d88268dc3ead1b87489264736f6c63430008000033",
  "linkReferences": {},
  "deployedLinkReferences": {}
}