{
  "_format": "hh-sol-artifact-1",
  "contractName": "ERC20",
  "sourceName": "contracts/erc20.sol",
  "abi": [
    {
      "inputs": [
        {
          "internalType": "bytes",
          "name": "tokenName",
          "type": "bytes"
        },
        {
          "internalType": "bytes",
          "name": "tokenSymbol",
          "type": "bytes"
        },
        {
          "internalType": "uint8",
          "name": "unitDecimals",
          "type": "uint8"
        },
        {
          "internalType": "uint256",
          "name": "totalSupplyAmount",
          "type": "uint256"
        }
      ],
      "stateMutability": "nonpayable",
      "type": "constructor"
    },
    {
      "inputs": [],
      "name": "theBalanceIsNotEnoughToTransferOrApprove",
      "type": "error"
    },
    {
      "inputs": [],
      "name": "theRequesterIsNotAuthorized",
      "type": "error"
    },
    {
      "inputs": [],
      "name": "yourApprovedValueToTransferIsLessThanValueYouWant",
      "type": "error"
    },
    {
      "anonymous": false,
      "inputs": [
        {
          "indexed": true,
          "internalType": "address",
          "name": "_owner",
          "type": "address"
        },
        {
          "indexed": true,
          "internalType": "address",
          "name": "_spender",
          "type": "address"
        },
        {
          "indexed": false,
          "internalType": "uint256",
          "name": "_value",
          "type": "uint256"
        }
      ],
      "name": "Approval",
      "type": "event"
    },
    {
      "anonymous": false,
      "inputs": [
        {
          "indexed": true,
          "internalType": "address",
          "name": "_from",
          "type": "address"
        },
        {
          "indexed": true,
          "internalType": "address",
          "name": "_to",
          "type": "address"
        },
        {
          "indexed": false,
          "internalType": "uint256",
          "name": "_value",
          "type": "uint256"
        }
      ],
      "name": "Transfer",
      "type": "event"
    },
    {
      "inputs": [
        {
          "internalType": "address",
          "name": "_owner",
          "type": "address"
        },
        {
          "internalType": "address",
          "name": "_spender",
          "type": "address"
        }
      ],
      "name": "allowance",
      "outputs": [
        {
          "internalType": "uint256",
          "name": "",
          "type": "uint256"
        }
      ],
      "stateMutability": "view",
      "type": "function"
    },
    {
      "inputs": [
        {
          "internalType": "address",
          "name": "_spender",
          "type": "address"
        },
        {
          "internalType": "uint256",
          "name": "_value",
          "type": "uint256"
        }
      ],
      "name": "approve",
      "outputs": [
        {
          "internalType": "bool",
          "name": "",
          "type": "bool"
        }
      ],
      "stateMutability": "nonpayable",
      "type": "function"
    },
    {
      "inputs": [
        {
          "internalType": "address",
          "name": "_owner",
          "type": "address"
        }
      ],
      "name": "balanceOf",
      "outputs": [
        {
          "internalType": "uint256",
          "name": "",
          "type": "uint256"
        }
      ],
      "stateMutability": "view",
      "type": "function"
    },
    {
      "inputs": [
        {
          "internalType": "uint256",
          "name": "_value",
          "type": "uint256"
        }
      ],
      "name": "burn",
      "outputs": [],
      "stateMutability": "nonpayable",
      "type": "function"
    },
    {
      "inputs": [],
      "name": "decimals",
      "outputs": [
        {
          "internalType": "uint8",
          "name": "",
          "type": "uint8"
        }
      ],
      "stateMutability": "view",
      "type": "function"
    },
    {
      "inputs": [
        {
          "internalType": "uint256",
          "name": "_value",
          "type": "uint256"
        }
      ],
      "name": "mint",
      "outputs": [],
      "stateMutability": "nonpayable",
      "type": "function"
    },
    {
      "inputs": [],
      "name": "name",
      "outputs": [
        {
          "internalType": "bytes",
          "name": "",
          "type": "bytes"
        }
      ],
      "stateMutability": "view",
      "type": "function"
    },
    {
      "inputs": [],
      "name": "owner",
      "outputs": [
        {
          "internalType": "address",
          "name": "",
          "type": "address"
        }
      ],
      "stateMutability": "view",
      "type": "function"
    },
    {
      "inputs": [
        {
          "internalType": "bytes4",
          "name": "interfaceID",
          "type": "bytes4"
        }
      ],
      "name": "supportsInterface",
      "outputs": [
        {
          "internalType": "bool",
          "name": "",
          "type": "bool"
        }
      ],
      "stateMutability": "pure",
      "type": "function"
    },
    {
      "inputs": [],
      "name": "symbol",
      "outputs": [
        {
          "internalType": "bytes",
          "name": "",
          "type": "bytes"
        }
      ],
      "stateMutability": "view",
      "type": "function"
    },
    {
      "inputs": [],
      "name": "totalSupply",
      "outputs": [
        {
          "internalType": "uint256",
          "name": "",
          "type": "uint256"
        }
      ],
      "stateMutability": "view",
      "type": "function"
    },
    {
      "inputs": [
        {
          "internalType": "address",
          "name": "_to",
          "type": "address"
        },
        {
          "internalType": "uint256",
          "name": "_value",
          "type": "uint256"
        }
      ],
      "name": "transfer",
      "outputs": [
        {
          "internalType": "bool",
          "name": "",
          "type": "bool"
        }
      ],
      "stateMutability": "nonpayable",
      "type": "function"
    },
    {
      "inputs": [
        {
          "internalType": "address",
          "name": "_from",
          "type": "address"
        },
        {
          "internalType": "address",
          "name": "_to",
          "type": "address"
        },
        {
          "internalType": "uint256",
          "name": "_value",
          "type": "uint256"
        }
      ],
      "name": "transferFrom",
      "outputs": [
        {
          "internalType": "bool",
          "name": "",
          "type": "bool"
        }
      ],
      "stateMutability": "nonpayable",
      "type": "function"
    }
  ],
  "bytecode": "0x608060405234801561001057600080fd5b5060405161211938038061211983398181016040528101906100329190610390565b336000806101000a81548173ffffffffffffffffffffffffffffffffffffffff021916908373ffffffffffffffffffffffffffffffffffffffff16021790555083600190816100819190610646565b5082600290816100919190610646565b5081600360006101000a81548160ff021916908360ff16021790555080600481905550600454600560008060009054906101000a900473ffffffffffffffffffffffffffffffffffffffff1673ffffffffffffffffffffffffffffffffffffffff1673ffffffffffffffffffffffffffffffffffffffff1681526020019081526020016000208190555060008054906101000a900473ffffffffffffffffffffffffffffffffffffffff1673ffffffffffffffffffffffffffffffffffffffff16600073ffffffffffffffffffffffffffffffffffffffff167fddf252ad1be2c89b69c2b068fc378daa952ba7f163c4a11628f55a4df523b3ef60045460405161019b9190610727565b60405180910390a350505050610742565b6000604051905090565b600080fd5b600080fd5b600080fd5b600080fd5b6000601f19601f8301169050919050565b7f4e487b7100000000000000000000000000000000000000000000000000000000600052604160045260246000fd5b610213826101ca565b810181811067ffffffffffffffff82111715610232576102316101db565b5b80604052505050565b60006102456101ac565b9050610251828261020a565b919050565b600067ffffffffffffffff821115610271576102706101db565b5b61027a826101ca565b9050602081019050919050565b60005b838110156102a557808201518184015260208101905061028a565b60008484015250505050565b60006102c46102bf84610256565b61023b565b9050828152602081018484840111156102e0576102df6101c5565b5b6102eb848285610287565b509392505050565b600082601f830112610308576103076101c0565b5b81516103188482602086016102b1565b91505092915050565b600060ff82169050919050565b61033781610321565b811461034257600080fd5b50565b6000815190506103548161032e565b92915050565b6000819050919050565b61036d8161035a565b811461037857600080fd5b50565b60008151905061038a81610364565b92915050565b600080600080608085870312156103aa576103a96101b6565b5b600085015167ffffffffffffffff8111156103c8576103c76101bb565b5b6103d4878288016102f3565b945050602085015167ffffffffffffffff8111156103f5576103f46101bb565b5b610401878288016102f3565b935050604061041287828801610345565b92505060606104238782880161037b565b91505092959194509250565b600081519050919050565b7f4e487b7100000000000000000000000000000000000000000000000000000000600052602260045260246000fd5b6000600282049050600182168061048157607f821691505b6020821081036104945761049361043a565b5b50919050565b60008190508160005260206000209050919050565b60006020601f8301049050919050565b600082821b905092915050565b6000600883026104fc7fffffffffffffffffffffffffffffffffffffffffffffffffffffffffffffffff826104bf565b61050686836104bf565b95508019841693508086168417925050509392505050565b6000819050919050565b600061054361053e6105398461035a565b61051e565b61035a565b9050919050565b6000819050919050565b61055d83610528565b6105716105698261054a565b8484546104cc565b825550505050565b600090565b610586610579565b610591818484610554565b505050565b5b818110156105b5576105aa60008261057e565b600181019050610597565b5050565b601f8211156105fa576105cb8161049a565b6105d4846104af565b810160208510156105e3578190505b6105f76105ef856104af565b830182610596565b50505b505050565b600082821c905092915050565b600061061d600019846008026105ff565b1980831691505092915050565b6000610636838361060c565b9150826002028217905092915050565b61064f8261042f565b67ffffffffffffffff811115610668576106676101db565b5b6106728254610469565b61067d8282856105b9565b600060209050601f8311600181146106b0576000841561069e578287015190505b6106a8858261062a565b865550610710565b601f1984166106be8661049a565b60005b828110156106e6578489015182556001820191506020850194506020810190506106c1565b8683101561070357848901516106ff601f89168261060c565b8355505b6001600288020188555050505b505050505050565b6107218161035a565b82525050565b600060208201905061073c6000830184610718565b92915050565b6119c8806107516000396000f3fe608060405234801561001057600080fd5b50600436106100cf5760003560e01c806342966c681161008c57806395d89b411161006657806395d89b4114610228578063a0712d6814610246578063a9059cbb14610262578063dd62ed3e14610292576100cf565b806342966c68146101be57806370a08231146101da5780638da5cb5b1461020a576100cf565b806301ffc9a7146100d457806306fdde0314610104578063095ea7b31461012257806318160ddd1461015257806323b872dd14610170578063313ce567146101a0575b600080fd5b6100ee60048036038101906100e9919061153a565b6102c2565b6040516100fb9190611582565b60405180910390f35b61010c61039a565b604051610119919061162d565b60405180910390f35b61013c600480360381019061013791906116e3565b610428565b6040516101499190611582565b60405180910390f35b61015a610619565b6040516101679190611732565b60405180910390f35b61018a6004803603810190610185919061174d565b61061f565b6040516101979190611582565b60405180910390f35b6101a8610a22565b6040516101b591906117bc565b60405180910390f35b6101d860048036038101906101d391906117d7565b610a35565b005b6101f460048036038101906101ef9190611804565b610d11565b6040516102019190611732565b60405180910390f35b610212610d5a565b60405161021f9190611840565b60405180910390f35b610230610d7e565b60405161023d919061162d565b60405180910390f35b610260600480360381019061025b91906117d7565b610e0c565b005b61027c600480360381019061027791906116e3565b611047565b6040516102899190611582565b60405180910390f35b6102ac60048036038101906102a7919061185b565b611456565b6040516102b99190611732565b60405180910390f35b6000806301ffc9a760e01b7bffffffffffffffffffffffffffffffffffffffffffffffffffffffff1916837bffffffffffffffffffffffffffffffffffffffffffffffffffffffff1916149050600063dd62ed3e60e01b63095ea7b360e01b6323b872dd60e01b63a9059cbb60e01b6370a0823160e01b6318160ddd60e01b18181818187bffffffffffffffffffffffffffffffffffffffffffffffffffffffff1916847bffffffffffffffffffffffffffffffffffffffffffffffffffffffff191614905081806103915750805b92505050919050565b600180546103a7906118ca565b80601f01602080910402602001604051908101604052809291908181526020018280546103d3906118ca565b80156104205780601f106103f557610100808354040283529160200191610420565b820191906000526020600020905b81548152906001019060200180831161040357829003601f168201915b505050505081565b6000338280600560008473ffffffffffffffffffffffffffffffffffffffff1673ffffffffffffffffffffffffffffffffffffffff16815260200190815260200160002054106105df5783600660003373ffffffffffffffffffffffffffffffffffffffff1673ffffffffffffffffffffffffffffffffffffffff16815260200190815260200160002060008773ffffffffffffffffffffffffffffffffffffffff1673ffffffffffffffffffffffffffffffffffffffff1681526020019081526020016000208190555084600760003373ffffffffffffffffffffffffffffffffffffffff1673ffffffffffffffffffffffffffffffffffffffff16815260200190815260200160002060006101000a81548173ffffffffffffffffffffffffffffffffffffffff021916908373ffffffffffffffffffffffffffffffffffffffff1602179055508473ffffffffffffffffffffffffffffffffffffffff163373ffffffffffffffffffffffffffffffffffffffff167f8c5be1e5ebec7d5bd14f71427d1e84f3dd0314c0f7b2291e5b200ac8c7c3b925866040516105ce9190611732565b60405180910390a360019250610611565b6040517f6e1e214300000000000000000000000000000000000000000000000000000000815260040160405180910390fd5b505092915050565b60045481565b6000833373ffffffffffffffffffffffffffffffffffffffff168173ffffffffffffffffffffffffffffffffffffffff1614806106e657503373ffffffffffffffffffffffffffffffffffffffff16600760008373ffffffffffffffffffffffffffffffffffffffff1673ffffffffffffffffffffffffffffffffffffffff16815260200190815260200160002060009054906101000a900473ffffffffffffffffffffffffffffffffffffffff1673ffffffffffffffffffffffffffffffffffffffff16145b156109e857848380600560008473ffffffffffffffffffffffffffffffffffffffff1673ffffffffffffffffffffffffffffffffffffffff16815260200190815260200160002054106109af573373ffffffffffffffffffffffffffffffffffffffff168773ffffffffffffffffffffffffffffffffffffffff16146108a75784600660008973ffffffffffffffffffffffffffffffffffffffff1673ffffffffffffffffffffffffffffffffffffffff16815260200190815260200160002060003373ffffffffffffffffffffffffffffffffffffffff1673ffffffffffffffffffffffffffffffffffffffff16815260200190815260200160002054101561081c576040517ff9bd265a00000000000000000000000000000000000000000000000000000000815260040160405180910390fd5b84600660008973ffffffffffffffffffffffffffffffffffffffff1673ffffffffffffffffffffffffffffffffffffffff16815260200190815260200160002060003373ffffffffffffffffffffffffffffffffffffffff1673ffffffffffffffffffffffffffffffffffffffff168152602001908152602001600020600082825403925050819055505b84600560008973ffffffffffffffffffffffffffffffffffffffff1673ffffffffffffffffffffffffffffffffffffffff1681526020019081526020016000206000828254039250508190555084600560008873ffffffffffffffffffffffffffffffffffffffff1673ffffffffffffffffffffffffffffffffffffffff168152602001908152602001600020600082825401925050819055508573ffffffffffffffffffffffffffffffffffffffff168773ffffffffffffffffffffffffffffffffffffffff167fddf252ad1be2c89b69c2b068fc378daa952ba7f163c4a11628f55a4df523b3ef8760405161099e9190611732565b60405180910390a3600193506109e1565b6040517f6e1e214300000000000000000000000000000000000000000000000000000000815260040160405180910390fd5b5050610a1a565b6040517fe8add00800000000000000000000000000000000000000000000000000000000815260040160405180910390fd5b509392505050565b600360009054906101000a900460ff1681565b60008054906101000a900473ffffffffffffffffffffffffffffffffffffffff163373ffffffffffffffffffffffffffffffffffffffff168173ffffffffffffffffffffffffffffffffffffffff161480610b1a57503373ffffffffffffffffffffffffffffffffffffffff16600760008373ffffffffffffffffffffffffffffffffffffffff1673ffffffffffffffffffffffffffffffffffffffff16815260200190815260200160002060009054906101000a900473ffffffffffffffffffffffffffffffffffffffff1673ffffffffffffffffffffffffffffffffffffffff16145b15610cdb5760008054906101000a900473ffffffffffffffffffffffffffffffffffffffff168280600560008473ffffffffffffffffffffffffffffffffffffffff1673ffffffffffffffffffffffffffffffffffffffff1681526020019081526020016000205410610ca2578360046000828254610b99919061192a565b9250508190555083600560008060009054906101000a900473ffffffffffffffffffffffffffffffffffffffff1673ffffffffffffffffffffffffffffffffffffffff1673ffffffffffffffffffffffffffffffffffffffff1681526020019081526020016000206000828254610c10919061192a565b92505081905550600073ffffffffffffffffffffffffffffffffffffffff1660008054906101000a900473ffffffffffffffffffffffffffffffffffffffff1673ffffffffffffffffffffffffffffffffffffffff167fddf252ad1be2c89b69c2b068fc378daa952ba7f163c4a11628f55a4df523b3ef86604051610c959190611732565b60405180910390a3610cd4565b6040517f6e1e214300000000000000000000000000000000000000000000000000000000815260040160405180910390fd5b5050610d0d565b6040517fe8add00800000000000000000000000000000000000000000000000000000000815260040160405180910390fd5b5050565b6000600560008373ffffffffffffffffffffffffffffffffffffffff1673ffffffffffffffffffffffffffffffffffffffff168152602001908152602001600020549050919050565b60008054906101000a900473ffffffffffffffffffffffffffffffffffffffff1681565b60028054610d8b906118ca565b80601f0160208091040260200160405190810160405280929190818152602001828054610db7906118ca565b8015610e045780601f10610dd957610100808354040283529160200191610e04565b820191906000526020600020905b815481529060010190602001808311610de757829003601f168201915b505050505081565b60008054906101000a900473ffffffffffffffffffffffffffffffffffffffff163373ffffffffffffffffffffffffffffffffffffffff168173ffffffffffffffffffffffffffffffffffffffff161480610ef157503373ffffffffffffffffffffffffffffffffffffffff16600760008373ffffffffffffffffffffffffffffffffffffffff1673ffffffffffffffffffffffffffffffffffffffff16815260200190815260200160002060009054906101000a900473ffffffffffffffffffffffffffffffffffffffff1673ffffffffffffffffffffffffffffffffffffffff16145b15611011578160046000828254610f08919061195e565b9250508190555081600560008060009054906101000a900473ffffffffffffffffffffffffffffffffffffffff1673ffffffffffffffffffffffffffffffffffffffff1673ffffffffffffffffffffffffffffffffffffffff1681526020019081526020016000206000828254610f7f919061195e565b9250508190555060008054906101000a900473ffffffffffffffffffffffffffffffffffffffff1673ffffffffffffffffffffffffffffffffffffffff16600073ffffffffffffffffffffffffffffffffffffffff167fddf252ad1be2c89b69c2b068fc378daa952ba7f163c4a11628f55a4df523b3ef846040516110049190611732565b60405180910390a3611043565b6040517fe8add00800000000000000000000000000000000000000000000000000000000815260040160405180910390fd5b5050565b60008060009054906101000a900473ffffffffffffffffffffffffffffffffffffffff163373ffffffffffffffffffffffffffffffffffffffff168173ffffffffffffffffffffffffffffffffffffffff16148061112f57503373ffffffffffffffffffffffffffffffffffffffff16600760008373ffffffffffffffffffffffffffffffffffffffff1673ffffffffffffffffffffffffffffffffffffffff16815260200190815260200160002060009054906101000a900473ffffffffffffffffffffffffffffffffffffffff1673ffffffffffffffffffffffffffffffffffffffff16145b1561141d5760008054906101000a900473ffffffffffffffffffffffffffffffffffffffff168380600560008473ffffffffffffffffffffffffffffffffffffffff1673ffffffffffffffffffffffffffffffffffffffff16815260200190815260200160002054106113e4573373ffffffffffffffffffffffffffffffffffffffff1660008054906101000a900473ffffffffffffffffffffffffffffffffffffffff1673ffffffffffffffffffffffffffffffffffffffff161461129b5784600660008060009054906101000a900473ffffffffffffffffffffffffffffffffffffffff1673ffffffffffffffffffffffffffffffffffffffff1673ffffffffffffffffffffffffffffffffffffffff16815260200190815260200160002060003373ffffffffffffffffffffffffffffffffffffffff1673ffffffffffffffffffffffffffffffffffffffff168152602001908152602001600020600082825403925050819055505b84600560008060009054906101000a900473ffffffffffffffffffffffffffffffffffffffff1673ffffffffffffffffffffffffffffffffffffffff1673ffffffffffffffffffffffffffffffffffffffff1681526020019081526020016000206000828254039250508190555084600560008873ffffffffffffffffffffffffffffffffffffffff1673ffffffffffffffffffffffffffffffffffffffff168152602001908152602001600020600082825401925050819055508573ffffffffffffffffffffffffffffffffffffffff1660008054906101000a900473ffffffffffffffffffffffffffffffffffffffff1673ffffffffffffffffffffffffffffffffffffffff167fddf252ad1be2c89b69c2b068fc378daa952ba7f163c4a11628f55a4df523b3ef876040516113d39190611732565b60405180910390a360019350611416565b6040517f6e1e214300000000000000000000000000000000000000000000000000000000815260040160405180910390fd5b505061144f565b6040517fe8add00800000000000000000000000000000000000000000000000000000000815260040160405180910390fd5b5092915050565b6000600660008473ffffffffffffffffffffffffffffffffffffffff1673ffffffffffffffffffffffffffffffffffffffff16815260200190815260200160002060008373ffffffffffffffffffffffffffffffffffffffff1673ffffffffffffffffffffffffffffffffffffffff16815260200190815260200160002054905092915050565b600080fd5b60007fffffffff0000000000000000000000000000000000000000000000000000000082169050919050565b611517816114e2565b811461152257600080fd5b50565b6000813590506115348161150e565b92915050565b6000602082840312156115505761154f6114dd565b5b600061155e84828501611525565b91505092915050565b60008115159050919050565b61157c81611567565b82525050565b60006020820190506115976000830184611573565b92915050565b600081519050919050565b600082825260208201905092915050565b60005b838110156115d75780820151818401526020810190506115bc565b60008484015250505050565b6000601f19601f8301169050919050565b60006115ff8261159d565b61160981856115a8565b93506116198185602086016115b9565b611622816115e3565b840191505092915050565b6000602082019050818103600083015261164781846115f4565b905092915050565b600073ffffffffffffffffffffffffffffffffffffffff82169050919050565b600061167a8261164f565b9050919050565b61168a8161166f565b811461169557600080fd5b50565b6000813590506116a781611681565b92915050565b6000819050919050565b6116c0816116ad565b81146116cb57600080fd5b50565b6000813590506116dd816116b7565b92915050565b600080604083850312156116fa576116f96114dd565b5b600061170885828601611698565b9250506020611719858286016116ce565b9150509250929050565b61172c816116ad565b82525050565b60006020820190506117476000830184611723565b92915050565b600080600060608486031215611766576117656114dd565b5b600061177486828701611698565b935050602061178586828701611698565b9250506040611796868287016116ce565b9150509250925092565b600060ff82169050919050565b6117b6816117a0565b82525050565b60006020820190506117d160008301846117ad565b92915050565b6000602082840312156117ed576117ec6114dd565b5b60006117fb848285016116ce565b91505092915050565b60006020828403121561181a576118196114dd565b5b600061182884828501611698565b91505092915050565b61183a8161166f565b82525050565b60006020820190506118556000830184611831565b92915050565b60008060408385031215611872576118716114dd565b5b600061188085828601611698565b925050602061189185828601611698565b9150509250929050565b7f4e487b7100000000000000000000000000000000000000000000000000000000600052602260045260246000fd5b600060028204905060018216806118e257607f821691505b6020821081036118f5576118f461189b565b5b50919050565b7f4e487b7100000000000000000000000000000000000000000000000000000000600052601160045260246000fd5b6000611935826116ad565b9150611940836116ad565b9250828203905081811115611958576119576118fb565b5b92915050565b6000611969826116ad565b9150611974836116ad565b925082820190508082111561198c5761198b6118fb565b5b9291505056fea2646970667358221220a503a4c00510af7e88acac00bfc5627697f95ea43e89a823f8210bd0d5aa8a4664736f6c634300081b0033",
  "linkReferences": {},
  "deployedLinkReferences": {}
}