{
  "_format": "hh-sol-artifact-1",
  "contractName": "ERC20",
  "sourceName": "contracts/ERC20.sol",
  "abi": [
    {
      "inputs": [
        {
          "internalType": "string",
          "name": "tokenName",
          "type": "string"
        },
        {
          "internalType": "string",
          "name": "tokenSymbol",
          "type": "string"
        },
        {
          "internalType": "uint8",
          "name": "unitDecimals",
          "type": "uint8"
        },
        {
          "internalType": "uint256",
          "name": "totalSupplyAmount",
          "type": "uint256"
        }
      ],
      "stateMutability": "nonpayable",
      "type": "constructor"
    },
    {
      "inputs": [
        {
          "internalType": "address",
          "name": "_spender",
          "type": "address"
        },
        {
          "internalType": "uint256",
          "name": "_allowance",
          "type": "uint256"
        },
        {
          "internalType": "uint256",
          "name": "_needed",
          "type": "uint256"
        }
      ],
      "name": "InsufficientAllowance",
      "type": "error"
    },
    {
      "inputs": [
        {
          "internalType": "address",
          "name": "_sender",
          "type": "address"
        },
        {
          "internalType": "uint256",
          "name": "_balance",
          "type": "uint256"
        },
        {
          "internalType": "uint256",
          "name": "_needed",
          "type": "uint256"
        }
      ],
      "name": "InsufficientBalance",
      "type": "error"
    },
    {
      "inputs": [
        {
          "internalType": "address",
          "name": "_approver",
          "type": "address"
        }
      ],
      "name": "InvalidApprover",
      "type": "error"
    },
    {
      "inputs": [
        {
          "internalType": "address",
          "name": "_receiver",
          "type": "address"
        }
      ],
      "name": "InvalidReceiver",
      "type": "error"
    },
    {
      "inputs": [
        {
          "internalType": "address",
          "name": "_sender",
          "type": "address"
        }
      ],
      "name": "InvalidSender",
      "type": "error"
    },
    {
      "inputs": [
        {
          "internalType": "address",
          "name": "_spender",
          "type": "address"
        }
      ],
      "name": "InvalidSpender",
      "type": "error"
    },
    {
      "inputs": [
        {
          "internalType": "address",
          "name": "_owner",
          "type": "address"
        },
        {
          "internalType": "address",
          "name": "_sender",
          "type": "address"
        }
      ],
      "name": "OnlyOwner",
      "type": "error"
    },
    {
      "inputs": [
        {
          "internalType": "address",
          "name": "_pendingOwner",
          "type": "address"
        },
        {
          "internalType": "address",
          "name": "_yourAddress",
          "type": "address"
        }
      ],
      "name": "OnlyPendingPwner",
      "type": "error"
    },
    {
      "inputs": [
        {
          "internalType": "address",
          "name": "_setAddr",
          "type": "address"
        }
      ],
      "name": "ZerpPendingOwner",
      "type": "error"
    },
    {
      "anonymous": false,
      "inputs": [
        {
          "indexed": true,
          "internalType": "address",
          "name": "owner",
          "type": "address"
        },
        {
          "indexed": true,
          "internalType": "address",
          "name": "spender",
          "type": "address"
        },
        {
          "indexed": false,
          "internalType": "uint256",
          "name": "value",
          "type": "uint256"
        }
      ],
      "name": "Approval",
      "type": "event"
    },
    {
      "anonymous": false,
      "inputs": [
        {
          "indexed": false,
          "internalType": "uint256",
          "name": "_burnValue",
          "type": "uint256"
        },
        {
          "indexed": false,
          "internalType": "uint256",
          "name": "_supplyValue",
          "type": "uint256"
        }
      ],
      "name": "Burn",
      "type": "event"
    },
    {
      "anonymous": false,
      "inputs": [
        {
          "indexed": false,
          "internalType": "uint256",
          "name": "_mintValue",
          "type": "uint256"
        },
        {
          "indexed": false,
          "internalType": "uint256",
          "name": "_supplyValue",
          "type": "uint256"
        }
      ],
      "name": "Mint",
      "type": "event"
    },
    {
      "anonymous": false,
      "inputs": [
        {
          "indexed": false,
          "internalType": "address",
          "name": "_pendingOwner",
          "type": "address"
        }
      ],
      "name": "NewPendingOwnerSet",
      "type": "event"
    },
    {
      "anonymous": false,
      "inputs": [
        {
          "indexed": false,
          "internalType": "address",
          "name": "_newOwner",
          "type": "address"
        },
        {
          "indexed": false,
          "internalType": "address",
          "name": "_pendingOwner",
          "type": "address"
        }
      ],
      "name": "OwnerChanged",
      "type": "event"
    },
    {
      "anonymous": false,
      "inputs": [
        {
          "indexed": true,
          "internalType": "address",
          "name": "from",
          "type": "address"
        },
        {
          "indexed": true,
          "internalType": "address",
          "name": "to",
          "type": "address"
        },
        {
          "indexed": false,
          "internalType": "uint256",
          "name": "value",
          "type": "uint256"
        }
      ],
      "name": "Transfer",
      "type": "event"
    },
    {
      "inputs": [
        {
          "internalType": "address",
          "name": "_owner",
          "type": "address"
        },
        {
          "internalType": "address",
          "name": "_spender",
          "type": "address"
        }
      ],
      "name": "allowance",
      "outputs": [
        {
          "internalType": "uint256",
          "name": "",
          "type": "uint256"
        }
      ],
      "stateMutability": "view",
      "type": "function"
    },
    {
      "inputs": [
        {
          "internalType": "address",
          "name": "_spender",
          "type": "address"
        },
        {
          "internalType": "uint256",
          "name": "_value",
          "type": "uint256"
        }
      ],
      "name": "approve",
      "outputs": [
        {
          "internalType": "bool",
          "name": "",
          "type": "bool"
        }
      ],
      "stateMutability": "nonpayable",
      "type": "function"
    },
    {
      "inputs": [
        {
          "internalType": "address",
          "name": "_owner",
          "type": "address"
        }
      ],
      "name": "balanceOf",
      "outputs": [
        {
          "internalType": "uint256",
          "name": "",
          "type": "uint256"
        }
      ],
      "stateMutability": "view",
      "type": "function"
    },
    {
      "inputs": [
        {
          "internalType": "uint256",
          "name": "_value",
          "type": "uint256"
        }
      ],
      "name": "burn",
      "outputs": [],
      "stateMutability": "nonpayable",
      "type": "function"
    },
    {
      "inputs": [],
      "name": "changeOwner",
      "outputs": [],
      "stateMutability": "nonpayable",
      "type": "function"
    },
    {
      "inputs": [],
      "name": "decimals",
      "outputs": [
        {
          "internalType": "uint8",
          "name": "",
          "type": "uint8"
        }
      ],
      "stateMutability": "view",
      "type": "function"
    },
    {
      "inputs": [
        {
          "internalType": "address",
          "name": "_to",
          "type": "address"
        },
        {
          "internalType": "uint256",
          "name": "_value",
          "type": "uint256"
        }
      ],
      "name": "mint",
      "outputs": [],
      "stateMutability": "nonpayable",
      "type": "function"
    },
    {
      "inputs": [],
      "name": "name",
      "outputs": [
        {
          "internalType": "string",
          "name": "",
          "type": "string"
        }
      ],
      "stateMutability": "view",
      "type": "function"
    },
    {
      "inputs": [],
      "name": "owner",
      "outputs": [
        {
          "internalType": "address",
          "name": "",
          "type": "address"
        }
      ],
      "stateMutability": "view",
      "type": "function"
    },
    {
      "inputs": [],
      "name": "pendingOwner",
      "outputs": [
        {
          "internalType": "address",
          "name": "",
          "type": "address"
        }
      ],
      "stateMutability": "view",
      "type": "function"
    },
    {
      "inputs": [
        {
          "internalType": "address",
          "name": "_pendingOwner",
          "type": "address"
        }
      ],
      "name": "setPendingOwner",
      "outputs": [],
      "stateMutability": "nonpayable",
      "type": "function"
    },
    {
      "inputs": [
        {
          "internalType": "bytes4",
          "name": "interfaceID",
          "type": "bytes4"
        }
      ],
      "name": "supportsInterface",
      "outputs": [
        {
          "internalType": "bool",
          "name": "",
          "type": "bool"
        }
      ],
      "stateMutability": "pure",
      "type": "function"
    },
    {
      "inputs": [],
      "name": "symbol",
      "outputs": [
        {
          "internalType": "string",
          "name": "",
          "type": "string"
        }
      ],
      "stateMutability": "view",
      "type": "function"
    },
    {
      "inputs": [],
      "name": "totalSupply",
      "outputs": [
        {
          "internalType": "uint256",
          "name": "",
          "type": "uint256"
        }
      ],
      "stateMutability": "view",
      "type": "function"
    },
    {
      "inputs": [
        {
          "internalType": "address",
          "name": "_to",
          "type": "address"
        },
        {
          "internalType": "uint256",
          "name": "_value",
          "type": "uint256"
        }
      ],
      "name": "transfer",
      "outputs": [
        {
          "internalType": "bool",
          "name": "",
          "type": "bool"
        }
      ],
      "stateMutability": "nonpayable",
      "type": "function"
    },
    {
      "inputs": [
        {
          "internalType": "address",
          "name": "_from",
          "type": "address"
        },
        {
          "internalType": "address",
          "name": "_to",
          "type": "address"
        },
        {
          "internalType": "uint256",
          "name": "_value",
          "type": "uint256"
        }
      ],
      "name": "transferFrom",
      "outputs": [
        {
          "internalType": "bool",
          "name": "",
          "type": "bool"
        }
      ],
      "stateMutability": "nonpayable",
      "type": "function"
    }
  ],
  "bytecode": "0x608060405234801561001057600080fd5b50604051610ffa380380610ffa83398101604081905261002f91610187565b600080546001600160a01b03191633179055600261004d8582610299565b50600361005a8482610299565b506004805460ff191660ff84161790556005819055600080546001600160a01b03908116825260066020908152604080842085905583549051858152921692917fddf252ad1be2c89b69c2b068fc378daa952ba7f163c4a11628f55a4df523b3ef910160405180910390a350505050610357565b634e487b7160e01b600052604160045260246000fd5b600082601f8301126100f557600080fd5b81516001600160401b0381111561010e5761010e6100ce565b604051601f8201601f19908116603f011681016001600160401b038111828210171561013c5761013c6100ce565b60405281815283820160200185101561015457600080fd5b60005b8281101561017357602081860181015183830182015201610157565b506000918101602001919091529392505050565b6000806000806080858703121561019d57600080fd5b84516001600160401b038111156101b357600080fd5b6101bf878288016100e4565b602087015190955090506001600160401b038111156101dd57600080fd5b6101e9878288016100e4565b935050604085015160ff8116811461020057600080fd5b6060959095015193969295505050565b600181811c9082168061022457607f821691505b60208210810361024457634e487b7160e01b600052602260045260246000fd5b50919050565b601f82111561029457806000526020600020601f840160051c810160208510156102715750805b601f840160051c820191505b81811015610291576000815560010161027d565b50505b505050565b81516001600160401b038111156102b2576102b26100ce565b6102c6816102c08454610210565b8461024a565b6020601f8211600181146102fa57600083156102e25750848201515b600019600385901b1c1916600184901b178455610291565b600084815260208120601f198516915b8281101561032a578785015182556020948501946001909201910161030a565b50848210156103485786840151600019600387901b60f8161c191681555b50505050600190811b01905550565b610c94806103666000396000f3fe608060405234801561001057600080fd5b50600436106101005760003560e01c806362a0947711610097578063a9059cbb11610066578063a9059cbb1461021b578063c42069ec1461022e578063dd62ed3e14610241578063e30c39781461025457600080fd5b806362a09477146101b757806370a08231146101bf5780638da5cb5b146101e857806395d89b411461021357600080fd5b806323b872dd116100d357806323b872dd14610167578063313ce5671461017a57806340c10f191461018f57806342966c68146101a457600080fd5b806301ffc9a71461010557806306fdde031461012d578063095ea7b31461014257806318160ddd14610155575b600080fd5b610118610113366004610a86565b610267565b60405190151581526020015b60405180910390f35b610135610299565b6040516101249190610ab0565b610118610150366004610b1a565b61032b565b6005545b604051908152602001610124565b610118610175366004610b44565b610474565b60045460405160ff9091168152602001610124565b6101a261019d366004610b1a565b61065f565b005b6101a26101b2366004610b81565b61075d565b6101a261082f565b6101596101cd366004610b9a565b6001600160a01b031660009081526006602052604090205490565b6000546101fb906001600160a01b031681565b6040516001600160a01b039091168152602001610124565b6101356108d7565b610118610229366004610b1a565b6108e6565b6101a261023c366004610b9a565b6109bd565b61015961024f366004610bb5565b610a59565b6001546101fb906001600160a01b031681565b60006001600160e01b031982166301ffc9a760e01b8114906336372b0760e01b1481806102915750805b949350505050565b6060600280546102a890610be8565b80601f01602080910402602001604051908101604052809291908181526020018280546102d490610be8565b80156103215780601f106102f657610100808354040283529160200191610321565b820191906000526020600020905b81548152906001019060200180831161030457829003601f168201915b5050505050905090565b6000338061035c576040516322f051b160e21b81526001600160a01b03821660048201526024015b60405180910390fd5b836001600160a01b03811661038f5760405163270af7ed60e11b81526001600160a01b0382166004820152602401610353565b33600081815260066020526040902054859190828110610428573360008181526007602090815260408083206001600160a01b038d168085529083528184208c9055848452600883529281902080546001600160a01b03191684179055518a815283917f8c5be1e5ebec7d5bd14f71427d1e84f3dd0314c0f7b2291e5b200ac8c7c3b92591015b60405180910390a36001965050610469565b60006104348285610c38565b60405163db42144d60e01b81526001600160a01b03851660048201526024810184905260448101829052909150606401610353565b505050505092915050565b60006001600160a01b03841615610634576001600160a01b03831615610610576001600160a01b038416600090815260066020908152604080832054600783528184203380865293529083205491929091908583106105d157836001600160a01b0316886001600160a01b03161461055a578582101561052d576104f88287610c38565b604051630c95cf2760e11b81526001600160a01b03861660048201526024810184905260448101829052909150606401610353565b6001600160a01b038089166000908152600760209081526040808320938816835292905220805487900390555b6001600160a01b0380891660008181526006602052604080822080548b90039055928a168082529083902080548a01905591517fddf252ad1be2c89b69c2b068fc378daa952ba7f163c4a11628f55a4df523b3ef906105bc908a815260200190565b60405180910390a36001945050505050610658565b6105db8387610c38565b60405163db42144d60e01b81526001600160a01b03861660048201526024810185905260448101829052909150606401610353565b604051639cfea58360e01b81526001600160a01b0384166004820152602401610353565b6040516313053d9360e21b81526001600160a01b0385166004820152602401610353565b9392505050565b60005433906001600160a01b0316810361072d57826001600160a01b0381166106a657604051639cfea58360e01b81526001600160a01b0382166004820152602401610353565b82600560008282546106b89190610c4b565b90915550506001600160a01b038416600090815260066020526040812080548592906106e5908490610c4b565b90915550506005546040805185815260208101929092527fcc9c58b575eabd3f6a1ee653e91fcea3ff546867ffc3782a3bbca1f9b6dbb8df910160405180910390a150505050565b60005460405163a3ee740f60e01b81526001600160a01b0391821660048201529082166024820152604401610353565b3380610787576040516313053d9360e21b81526001600160a01b0382166004820152602401610353565b3360008181526006602052604090205483919082811061042857600033905085600560008282546107b89190610c38565b90915550506001600160a01b038116600090815260066020526040812080548892906107e5908490610c38565b90915550506005546040805188815260208101929092527f410c5c259085cde81fedf70c1aa308ec839373c26e9b7ada6560a2aca0254eb6910160405180910390a1505050505050565b60015433906001600160a01b031681036108a75760018054600080546001600160a01b0383166001600160a01b03199182168117835592169092556040805191825260208201929092527fb532073b38c83145e3e5135377a08bf9aab55bc0fd7c1179cd4fb995d2a5159c910160405180910390a150565b60015460405163176f517960e01b81526001600160a01b0391821660048201529082166024820152604401610353565b6060600380546102a890610be8565b60003380610912576040516313053d9360e21b81526001600160a01b0382166004820152602401610353565b836001600160a01b03811661094557604051639cfea58360e01b81526001600160a01b0382166004820152602401610353565b336000818152600660205260409020548591908281106104285733600081815260066020908152604080832080548c900390556001600160a01b038c168084529281902080548c019055518a815283917fddf252ad1be2c89b69c2b068fc378daa952ba7f163c4a11628f55a4df523b3ef9101610416565b60005433906001600160a01b0316810361072d576001600160a01b03821615610a3557600180546001600160a01b0319166001600160a01b0384169081179091556040519081527f7d5f578daab924f3f271d863dd8729e6970e9186812579e22f892146def80f679060200160405180910390a15050565b604051633484b10360e11b81526001600160a01b0383166004820152602401610353565b6001600160a01b038083166000908152600760209081526040808320938516835292905220545b92915050565b600060208284031215610a9857600080fd5b81356001600160e01b03198116811461065857600080fd5b602081526000825180602084015260005b81811015610ade5760208186018101516040868401015201610ac1565b506000604082850101526040601f19601f83011684010191505092915050565b80356001600160a01b0381168114610b1557600080fd5b919050565b60008060408385031215610b2d57600080fd5b610b3683610afe565b946020939093013593505050565b600080600060608486031215610b5957600080fd5b610b6284610afe565b9250610b7060208501610afe565b929592945050506040919091013590565b600060208284031215610b9357600080fd5b5035919050565b600060208284031215610bac57600080fd5b61065882610afe565b60008060408385031215610bc857600080fd5b610bd183610afe565b9150610bdf60208401610afe565b90509250929050565b600181811c90821680610bfc57607f821691505b602082108103610c1c57634e487b7160e01b600052602260045260246000fd5b50919050565b634e487b7160e01b600052601160045260246000fd5b81810381811115610a8057610a80610c22565b80820180821115610a8057610a80610c2256fea2646970667358221220e39fd5c2cba79cbb16055319ccafc3a73b541437af06b3f0c3b9a4b38022167464736f6c634300081c0033",
  "linkReferences": {},
  "deployedLinkReferences": {}
}