{
  "_format": "hh-sol-artifact-1",
  "contractName": "ERC20",
  "sourceName": "contracts/erc20.sol",
  "abi": [
    {
      "inputs": [
        {
          "internalType": "bytes",
          "name": "tokenName",
          "type": "bytes"
        },
        {
          "internalType": "bytes",
          "name": "tokenSymbol",
          "type": "bytes"
        },
        {
          "internalType": "uint8",
          "name": "unitDecimals",
          "type": "uint8"
        },
        {
          "internalType": "uint256",
          "name": "totalSupplyAmount",
          "type": "uint256"
        }
      ],
      "stateMutability": "nonpayable",
      "type": "constructor"
    },
    {
      "inputs": [],
      "name": "theBalanceIsNotEnoughToTransferOrApprove",
      "type": "error"
    },
    {
      "inputs": [],
      "name": "theRequesterIsNotAuthorized",
      "type": "error"
    },
    {
      "inputs": [],
      "name": "yourApprovedValueToTransferIsLessThanValueYouWant",
      "type": "error"
    },
    {
      "anonymous": false,
      "inputs": [
        {
          "indexed": true,
          "internalType": "address",
          "name": "_owner",
          "type": "address"
        },
        {
          "indexed": true,
          "internalType": "address",
          "name": "_spender",
          "type": "address"
        },
        {
          "indexed": false,
          "internalType": "uint256",
          "name": "_value",
          "type": "uint256"
        }
      ],
      "name": "Approval",
      "type": "event"
    },
    {
      "anonymous": false,
      "inputs": [
        {
          "indexed": true,
          "internalType": "address",
          "name": "_from",
          "type": "address"
        },
        {
          "indexed": true,
          "internalType": "address",
          "name": "_to",
          "type": "address"
        },
        {
          "indexed": false,
          "internalType": "uint256",
          "name": "_value",
          "type": "uint256"
        }
      ],
      "name": "Transfer",
      "type": "event"
    },
    {
      "inputs": [
        {
          "internalType": "address",
          "name": "_owner",
          "type": "address"
        },
        {
          "internalType": "address",
          "name": "_spender",
          "type": "address"
        }
      ],
      "name": "allowance",
      "outputs": [
        {
          "internalType": "uint256",
          "name": "",
          "type": "uint256"
        }
      ],
      "stateMutability": "view",
      "type": "function"
    },
    {
      "inputs": [
        {
          "internalType": "address",
          "name": "_spender",
          "type": "address"
        },
        {
          "internalType": "uint256",
          "name": "_value",
          "type": "uint256"
        }
      ],
      "name": "approve",
      "outputs": [
        {
          "internalType": "bool",
          "name": "",
          "type": "bool"
        }
      ],
      "stateMutability": "nonpayable",
      "type": "function"
    },
    {
      "inputs": [
        {
          "internalType": "address",
          "name": "_owner",
          "type": "address"
        }
      ],
      "name": "balanceOf",
      "outputs": [
        {
          "internalType": "uint256",
          "name": "",
          "type": "uint256"
        }
      ],
      "stateMutability": "view",
      "type": "function"
    },
    {
      "inputs": [],
      "name": "decimals",
      "outputs": [
        {
          "internalType": "uint8",
          "name": "",
          "type": "uint8"
        }
      ],
      "stateMutability": "view",
      "type": "function"
    },
    {
      "inputs": [
        {
          "internalType": "uint256",
          "name": "_value",
          "type": "uint256"
        },
        {
          "internalType": "bool",
          "name": "isMint",
          "type": "bool"
        }
      ],
      "name": "mintOrBurn",
      "outputs": [],
      "stateMutability": "nonpayable",
      "type": "function"
    },
    {
      "inputs": [],
      "name": "name",
      "outputs": [
        {
          "internalType": "bytes",
          "name": "",
          "type": "bytes"
        }
      ],
      "stateMutability": "view",
      "type": "function"
    },
    {
      "inputs": [],
      "name": "owner",
      "outputs": [
        {
          "internalType": "address",
          "name": "",
          "type": "address"
        }
      ],
      "stateMutability": "view",
      "type": "function"
    },
    {
      "inputs": [
        {
          "internalType": "bytes4",
          "name": "interfaceID",
          "type": "bytes4"
        }
      ],
      "name": "supportsInterface",
      "outputs": [
        {
          "internalType": "bool",
          "name": "",
          "type": "bool"
        }
      ],
      "stateMutability": "pure",
      "type": "function"
    },
    {
      "inputs": [],
      "name": "symbol",
      "outputs": [
        {
          "internalType": "bytes",
          "name": "",
          "type": "bytes"
        }
      ],
      "stateMutability": "view",
      "type": "function"
    },
    {
      "inputs": [],
      "name": "totalSupply",
      "outputs": [
        {
          "internalType": "uint256",
          "name": "",
          "type": "uint256"
        }
      ],
      "stateMutability": "view",
      "type": "function"
    },
    {
      "inputs": [
        {
          "internalType": "address",
          "name": "_to",
          "type": "address"
        },
        {
          "internalType": "uint256",
          "name": "_value",
          "type": "uint256"
        }
      ],
      "name": "transfer",
      "outputs": [
        {
          "internalType": "bool",
          "name": "",
          "type": "bool"
        }
      ],
      "stateMutability": "nonpayable",
      "type": "function"
    },
    {
      "inputs": [
        {
          "internalType": "address",
          "name": "_from",
          "type": "address"
        },
        {
          "internalType": "address",
          "name": "_to",
          "type": "address"
        },
        {
          "internalType": "uint256",
          "name": "_value",
          "type": "uint256"
        }
      ],
      "name": "transferFrom",
      "outputs": [
        {
          "internalType": "bool",
          "name": "",
          "type": "bool"
        }
      ],
      "stateMutability": "nonpayable",
      "type": "function"
    }
  ],
  "bytecode": "0x608060405234801561001057600080fd5b50604051611fae380380611fae83398181016040528101906100329190610390565b336000806101000a81548173ffffffffffffffffffffffffffffffffffffffff021916908373ffffffffffffffffffffffffffffffffffffffff16021790555083600190816100819190610646565b5082600290816100919190610646565b5081600360006101000a81548160ff021916908360ff16021790555080600481905550600454600560008060009054906101000a900473ffffffffffffffffffffffffffffffffffffffff1673ffffffffffffffffffffffffffffffffffffffff1673ffffffffffffffffffffffffffffffffffffffff1681526020019081526020016000208190555060008054906101000a900473ffffffffffffffffffffffffffffffffffffffff1673ffffffffffffffffffffffffffffffffffffffff16600073ffffffffffffffffffffffffffffffffffffffff167fddf252ad1be2c89b69c2b068fc378daa952ba7f163c4a11628f55a4df523b3ef60045460405161019b9190610727565b60405180910390a350505050610742565b6000604051905090565b600080fd5b600080fd5b600080fd5b600080fd5b6000601f19601f8301169050919050565b7f4e487b7100000000000000000000000000000000000000000000000000000000600052604160045260246000fd5b610213826101ca565b810181811067ffffffffffffffff82111715610232576102316101db565b5b80604052505050565b60006102456101ac565b9050610251828261020a565b919050565b600067ffffffffffffffff821115610271576102706101db565b5b61027a826101ca565b9050602081019050919050565b60005b838110156102a557808201518184015260208101905061028a565b60008484015250505050565b60006102c46102bf84610256565b61023b565b9050828152602081018484840111156102e0576102df6101c5565b5b6102eb848285610287565b509392505050565b600082601f830112610308576103076101c0565b5b81516103188482602086016102b1565b91505092915050565b600060ff82169050919050565b61033781610321565b811461034257600080fd5b50565b6000815190506103548161032e565b92915050565b6000819050919050565b61036d8161035a565b811461037857600080fd5b50565b60008151905061038a81610364565b92915050565b600080600080608085870312156103aa576103a96101b6565b5b600085015167ffffffffffffffff8111156103c8576103c76101bb565b5b6103d4878288016102f3565b945050602085015167ffffffffffffffff8111156103f5576103f46101bb565b5b610401878288016102f3565b935050604061041287828801610345565b92505060606104238782880161037b565b91505092959194509250565b600081519050919050565b7f4e487b7100000000000000000000000000000000000000000000000000000000600052602260045260246000fd5b6000600282049050600182168061048157607f821691505b6020821081036104945761049361043a565b5b50919050565b60008190508160005260206000209050919050565b60006020601f8301049050919050565b600082821b905092915050565b6000600883026104fc7fffffffffffffffffffffffffffffffffffffffffffffffffffffffffffffffff826104bf565b61050686836104bf565b95508019841693508086168417925050509392505050565b6000819050919050565b600061054361053e6105398461035a565b61051e565b61035a565b9050919050565b6000819050919050565b61055d83610528565b6105716105698261054a565b8484546104cc565b825550505050565b600090565b610586610579565b610591818484610554565b505050565b5b818110156105b5576105aa60008261057e565b600181019050610597565b5050565b601f8211156105fa576105cb8161049a565b6105d4846104af565b810160208510156105e3578190505b6105f76105ef856104af565b830182610596565b50505b505050565b600082821c905092915050565b600061061d600019846008026105ff565b1980831691505092915050565b6000610636838361060c565b9150826002028217905092915050565b61064f8261042f565b67ffffffffffffffff811115610668576106676101db565b5b6106728254610469565b61067d8282856105b9565b600060209050601f8311600181146106b0576000841561069e578287015190505b6106a8858261062a565b865550610710565b601f1984166106be8661049a565b60005b828110156106e6578489015182556001820191506020850194506020810190506106c1565b8683101561070357848901516106ff601f89168261060c565b8355505b6001600288020188555050505b505050505050565b6107218161035a565b82525050565b600060208201905061073c6000830184610718565b92915050565b61185d806107516000396000f3fe608060405234801561001057600080fd5b50600436106100b45760003560e01c806370a082311161007157806370a08231146101a35780638da5cb5b146101d357806395d89b41146101f15780639f50cf951461020f578063a9059cbb1461022b578063dd62ed3e1461025b576100b4565b806301ffc9a7146100b957806306fdde03146100e9578063095ea7b31461010757806318160ddd1461013757806323b872dd14610155578063313ce56714610185575b600080fd5b6100d360048036038101906100ce9190611390565b61028b565b6040516100e091906113d8565b60405180910390f35b6100f1610363565b6040516100fe9190611483565b60405180910390f35b610121600480360381019061011c9190611539565b6103f1565b60405161012e91906113d8565b60405180910390f35b61013f6105e2565b60405161014c9190611588565b60405180910390f35b61016f600480360381019061016a91906115a3565b6105e8565b60405161017c91906113d8565b60405180910390f35b61018d6109eb565b60405161019a9190611612565b60405180910390f35b6101bd60048036038101906101b8919061162d565b6109fe565b6040516101ca9190611588565b60405180910390f35b6101db610a47565b6040516101e89190611669565b60405180910390f35b6101f9610a6b565b6040516102069190611483565b60405180910390f35b610229600480360381019061022491906116b0565b610af9565b005b61024560048036038101906102409190611539565b610e9d565b60405161025291906113d8565b60405180910390f35b610275600480360381019061027091906116f0565b6112ac565b6040516102829190611588565b60405180910390f35b6000806301ffc9a760e01b7bffffffffffffffffffffffffffffffffffffffffffffffffffffffff1916837bffffffffffffffffffffffffffffffffffffffffffffffffffffffff1916149050600063dd62ed3e60e01b63095ea7b360e01b6323b872dd60e01b63a9059cbb60e01b6370a0823160e01b6318160ddd60e01b18181818187bffffffffffffffffffffffffffffffffffffffffffffffffffffffff1916847bffffffffffffffffffffffffffffffffffffffffffffffffffffffff1916149050818061035a5750805b92505050919050565b600180546103709061175f565b80601f016020809104026020016040519081016040528092919081815260200182805461039c9061175f565b80156103e95780601f106103be576101008083540402835291602001916103e9565b820191906000526020600020905b8154815290600101906020018083116103cc57829003601f168201915b505050505081565b6000338280600560008473ffffffffffffffffffffffffffffffffffffffff1673ffffffffffffffffffffffffffffffffffffffff16815260200190815260200160002054106105a85783600660003373ffffffffffffffffffffffffffffffffffffffff1673ffffffffffffffffffffffffffffffffffffffff16815260200190815260200160002060008773ffffffffffffffffffffffffffffffffffffffff1673ffffffffffffffffffffffffffffffffffffffff1681526020019081526020016000208190555084600760003373ffffffffffffffffffffffffffffffffffffffff1673ffffffffffffffffffffffffffffffffffffffff16815260200190815260200160002060006101000a81548173ffffffffffffffffffffffffffffffffffffffff021916908373ffffffffffffffffffffffffffffffffffffffff1602179055508473ffffffffffffffffffffffffffffffffffffffff163373ffffffffffffffffffffffffffffffffffffffff167f8c5be1e5ebec7d5bd14f71427d1e84f3dd0314c0f7b2291e5b200ac8c7c3b925866040516105979190611588565b60405180910390a3600192506105da565b6040517f6e1e214300000000000000000000000000000000000000000000000000000000815260040160405180910390fd5b505092915050565b60045481565b6000833373ffffffffffffffffffffffffffffffffffffffff168173ffffffffffffffffffffffffffffffffffffffff1614806106af57503373ffffffffffffffffffffffffffffffffffffffff16600760008373ffffffffffffffffffffffffffffffffffffffff1673ffffffffffffffffffffffffffffffffffffffff16815260200190815260200160002060009054906101000a900473ffffffffffffffffffffffffffffffffffffffff1673ffffffffffffffffffffffffffffffffffffffff16145b156109b157848380600560008473ffffffffffffffffffffffffffffffffffffffff1673ffffffffffffffffffffffffffffffffffffffff1681526020019081526020016000205410610978573373ffffffffffffffffffffffffffffffffffffffff168773ffffffffffffffffffffffffffffffffffffffff16146108705784600660008973ffffffffffffffffffffffffffffffffffffffff1673ffffffffffffffffffffffffffffffffffffffff16815260200190815260200160002060003373ffffffffffffffffffffffffffffffffffffffff1673ffffffffffffffffffffffffffffffffffffffff1681526020019081526020016000205410156107e5576040517ff9bd265a00000000000000000000000000000000000000000000000000000000815260040160405180910390fd5b84600660008973ffffffffffffffffffffffffffffffffffffffff1673ffffffffffffffffffffffffffffffffffffffff16815260200190815260200160002060003373ffffffffffffffffffffffffffffffffffffffff1673ffffffffffffffffffffffffffffffffffffffff168152602001908152602001600020600082825403925050819055505b84600560008973ffffffffffffffffffffffffffffffffffffffff1673ffffffffffffffffffffffffffffffffffffffff1681526020019081526020016000206000828254039250508190555084600560008873ffffffffffffffffffffffffffffffffffffffff1673ffffffffffffffffffffffffffffffffffffffff168152602001908152602001600020600082825401925050819055508573ffffffffffffffffffffffffffffffffffffffff168773ffffffffffffffffffffffffffffffffffffffff167fddf252ad1be2c89b69c2b068fc378daa952ba7f163c4a11628f55a4df523b3ef876040516109679190611588565b60405180910390a3600193506109aa565b6040517f6e1e214300000000000000000000000000000000000000000000000000000000815260040160405180910390fd5b50506109e3565b6040517fe8add00800000000000000000000000000000000000000000000000000000000815260040160405180910390fd5b509392505050565b600360009054906101000a900460ff1681565b6000600560008373ffffffffffffffffffffffffffffffffffffffff1673ffffffffffffffffffffffffffffffffffffffff168152602001908152602001600020549050919050565b60008054906101000a900473ffffffffffffffffffffffffffffffffffffffff1681565b60028054610a789061175f565b80601f0160208091040260200160405190810160405280929190818152602001828054610aa49061175f565b8015610af15780601f10610ac657610100808354040283529160200191610af1565b820191906000526020600020905b815481529060010190602001808311610ad457829003601f168201915b505050505081565b60008054906101000a900473ffffffffffffffffffffffffffffffffffffffff163373ffffffffffffffffffffffffffffffffffffffff168173ffffffffffffffffffffffffffffffffffffffff161480610bde57503373ffffffffffffffffffffffffffffffffffffffff16600760008373ffffffffffffffffffffffffffffffffffffffff1673ffffffffffffffffffffffffffffffffffffffff16815260200190815260200160002060009054906101000a900473ffffffffffffffffffffffffffffffffffffffff1673ffffffffffffffffffffffffffffffffffffffff16145b15610e66576000808315610ca8578460046000828254610bfe91906117bf565b9250508190555084600560008060009054906101000a900473ffffffffffffffffffffffffffffffffffffffff1673ffffffffffffffffffffffffffffffffffffffff1673ffffffffffffffffffffffffffffffffffffffff1681526020019081526020016000206000828254610c7591906117bf565b925050819055506000915060008054906101000a900473ffffffffffffffffffffffffffffffffffffffff169050610dfa565b84600560008060009054906101000a900473ffffffffffffffffffffffffffffffffffffffff1673ffffffffffffffffffffffffffffffffffffffff1673ffffffffffffffffffffffffffffffffffffffff168152602001908152602001600020541015610d42576040517f6e1e214300000000000000000000000000000000000000000000000000000000815260040160405180910390fd5b8460046000828254610d5491906117f3565b9250508190555084600560008060009054906101000a900473ffffffffffffffffffffffffffffffffffffffff1673ffffffffffffffffffffffffffffffffffffffff1673ffffffffffffffffffffffffffffffffffffffff1681526020019081526020016000206000828254610dcb91906117f3565b9250508190555060008054906101000a900473ffffffffffffffffffffffffffffffffffffffff169150600090505b8073ffffffffffffffffffffffffffffffffffffffff168273ffffffffffffffffffffffffffffffffffffffff167fddf252ad1be2c89b69c2b068fc378daa952ba7f163c4a11628f55a4df523b3ef87604051610e579190611588565b60405180910390a35050610e98565b6040517fe8add00800000000000000000000000000000000000000000000000000000000815260040160405180910390fd5b505050565b60008060009054906101000a900473ffffffffffffffffffffffffffffffffffffffff163373ffffffffffffffffffffffffffffffffffffffff168173ffffffffffffffffffffffffffffffffffffffff161480610f8557503373ffffffffffffffffffffffffffffffffffffffff16600760008373ffffffffffffffffffffffffffffffffffffffff1673ffffffffffffffffffffffffffffffffffffffff16815260200190815260200160002060009054906101000a900473ffffffffffffffffffffffffffffffffffffffff1673ffffffffffffffffffffffffffffffffffffffff16145b156112735760008054906101000a900473ffffffffffffffffffffffffffffffffffffffff168380600560008473ffffffffffffffffffffffffffffffffffffffff1673ffffffffffffffffffffffffffffffffffffffff168152602001908152602001600020541061123a573373ffffffffffffffffffffffffffffffffffffffff1660008054906101000a900473ffffffffffffffffffffffffffffffffffffffff1673ffffffffffffffffffffffffffffffffffffffff16146110f15784600660008060009054906101000a900473ffffffffffffffffffffffffffffffffffffffff1673ffffffffffffffffffffffffffffffffffffffff1673ffffffffffffffffffffffffffffffffffffffff16815260200190815260200160002060003373ffffffffffffffffffffffffffffffffffffffff1673ffffffffffffffffffffffffffffffffffffffff168152602001908152602001600020600082825403925050819055505b84600560008060009054906101000a900473ffffffffffffffffffffffffffffffffffffffff1673ffffffffffffffffffffffffffffffffffffffff1673ffffffffffffffffffffffffffffffffffffffff1681526020019081526020016000206000828254039250508190555084600560008873ffffffffffffffffffffffffffffffffffffffff1673ffffffffffffffffffffffffffffffffffffffff168152602001908152602001600020600082825401925050819055508573ffffffffffffffffffffffffffffffffffffffff1660008054906101000a900473ffffffffffffffffffffffffffffffffffffffff1673ffffffffffffffffffffffffffffffffffffffff167fddf252ad1be2c89b69c2b068fc378daa952ba7f163c4a11628f55a4df523b3ef876040516112299190611588565b60405180910390a36001935061126c565b6040517f6e1e214300000000000000000000000000000000000000000000000000000000815260040160405180910390fd5b50506112a5565b6040517fe8add00800000000000000000000000000000000000000000000000000000000815260040160405180910390fd5b5092915050565b6000600660008473ffffffffffffffffffffffffffffffffffffffff1673ffffffffffffffffffffffffffffffffffffffff16815260200190815260200160002060008373ffffffffffffffffffffffffffffffffffffffff1673ffffffffffffffffffffffffffffffffffffffff16815260200190815260200160002054905092915050565b600080fd5b60007fffffffff0000000000000000000000000000000000000000000000000000000082169050919050565b61136d81611338565b811461137857600080fd5b50565b60008135905061138a81611364565b92915050565b6000602082840312156113a6576113a5611333565b5b60006113b48482850161137b565b91505092915050565b60008115159050919050565b6113d2816113bd565b82525050565b60006020820190506113ed60008301846113c9565b92915050565b600081519050919050565b600082825260208201905092915050565b60005b8381101561142d578082015181840152602081019050611412565b60008484015250505050565b6000601f19601f8301169050919050565b6000611455826113f3565b61145f81856113fe565b935061146f81856020860161140f565b61147881611439565b840191505092915050565b6000602082019050818103600083015261149d818461144a565b905092915050565b600073ffffffffffffffffffffffffffffffffffffffff82169050919050565b60006114d0826114a5565b9050919050565b6114e0816114c5565b81146114eb57600080fd5b50565b6000813590506114fd816114d7565b92915050565b6000819050919050565b61151681611503565b811461152157600080fd5b50565b6000813590506115338161150d565b92915050565b600080604083850312156115505761154f611333565b5b600061155e858286016114ee565b925050602061156f85828601611524565b9150509250929050565b61158281611503565b82525050565b600060208201905061159d6000830184611579565b92915050565b6000806000606084860312156115bc576115bb611333565b5b60006115ca868287016114ee565b93505060206115db868287016114ee565b92505060406115ec86828701611524565b9150509250925092565b600060ff82169050919050565b61160c816115f6565b82525050565b60006020820190506116276000830184611603565b92915050565b60006020828403121561164357611642611333565b5b6000611651848285016114ee565b91505092915050565b611663816114c5565b82525050565b600060208201905061167e600083018461165a565b92915050565b61168d816113bd565b811461169857600080fd5b50565b6000813590506116aa81611684565b92915050565b600080604083850312156116c7576116c6611333565b5b60006116d585828601611524565b92505060206116e68582860161169b565b9150509250929050565b6000806040838503121561170757611706611333565b5b6000611715858286016114ee565b9250506020611726858286016114ee565b9150509250929050565b7f4e487b7100000000000000000000000000000000000000000000000000000000600052602260045260246000fd5b6000600282049050600182168061177757607f821691505b60208210810361178a57611789611730565b5b50919050565b7f4e487b7100000000000000000000000000000000000000000000000000000000600052601160045260246000fd5b60006117ca82611503565b91506117d583611503565b92508282019050808211156117ed576117ec611790565b5b92915050565b60006117fe82611503565b915061180983611503565b925082820390508181111561182157611820611790565b5b9291505056fea26469706673582212203a87fc57ac2b6491e708327f7d6f6145acd7e658c51ae3823beb5050ac82031464736f6c634300081b0033",
  "linkReferences": {},
  "deployedLinkReferences": {}
}